{
	"contracts/House.sol": {
		"House": {
			"abi": [
				{
					"inputs": [],
					"stateMutability": "nonpayable",
					"type": "constructor"
				},
				{
					"inputs": [
						{
							"internalType": "uint256",
							"name": "",
							"type": "uint256"
						}
					],
					"name": "Agreements_by_Number",
					"outputs": [
						{
							"internalType": "uint256",
							"name": "room_number",
							"type": "uint256"
						},
						{
							"internalType": "uint256",
							"name": "lease_duration",
							"type": "uint256"
						},
						{
							"internalType": "uint256",
							"name": "number_of_payments",
							"type": "uint256"
						},
						{
							"internalType": "uint256",
							"name": "timestamp",
							"type": "uint256"
						},
						{
							"internalType": "address payable",
							"name": "tenant",
							"type": "address"
						}
					],
					"stateMutability": "view",
					"type": "function"
				},
				{
					"inputs": [
						{
							"internalType": "uint256",
							"name": "",
							"type": "uint256"
						},
						{
							"internalType": "uint256",
							"name": "",
							"type": "uint256"
						}
					],
					"name": "Payments_by_Number",
					"outputs": [
						{
							"internalType": "uint256",
							"name": "room_number",
							"type": "uint256"
						},
						{
							"internalType": "uint256",
							"name": "amount",
							"type": "uint256"
						},
						{
							"internalType": "uint256",
							"name": "timestamp",
							"type": "uint256"
						}
					],
					"stateMutability": "view",
					"type": "function"
				},
				{
					"inputs": [
						{
							"internalType": "uint256",
							"name": "",
							"type": "uint256"
						}
					],
					"name": "Rooms_by_Number",
					"outputs": [
						{
							"internalType": "uint256",
							"name": "room_number",
							"type": "uint256"
						},
						{
							"internalType": "uint256",
							"name": "rent_per_month",
							"type": "uint256"
						},
						{
							"internalType": "uint256",
							"name": "security_deposit",
							"type": "uint256"
						},
						{
							"internalType": "bool",
							"name": "vacant",
							"type": "bool"
						}
					],
					"stateMutability": "view",
					"type": "function"
				},
				{
					"inputs": [
						{
							"internalType": "uint256",
							"name": "_rooms",
							"type": "uint256"
						},
						{
							"internalType": "uint256",
							"name": "_rent",
							"type": "uint256"
						},
						{
							"internalType": "uint256",
							"name": "_security_deposit",
							"type": "uint256"
						}
					],
					"name": "addRooms",
					"outputs": [],
					"stateMutability": "nonpayable",
					"type": "function"
				},
				{
					"inputs": [
						{
							"internalType": "uint256",
							"name": "_room_number",
							"type": "uint256"
						}
					],
					"name": "payRent",
					"outputs": [],
					"stateMutability": "payable",
					"type": "function"
				},
				{
					"inputs": [
						{
							"internalType": "uint256",
							"name": "_room_number",
							"type": "uint256"
						},
						{
							"internalType": "uint256",
							"name": "_duration",
							"type": "uint256"
						}
					],
					"name": "signAgreement",
					"outputs": [],
					"stateMutability": "payable",
					"type": "function"
				},
				{
					"inputs": [
						{
							"internalType": "uint256",
							"name": "_room_number",
							"type": "uint256"
						}
					],
					"name": "terminateAgreement",
					"outputs": [],
					"stateMutability": "payable",
					"type": "function"
				}
			],
			"devdoc": {
				"kind": "dev",
				"methods": {},
				"version": 1
			},
			"evm": {
				"assembly": "    /* \"contracts/House.sol\":33:5423  contract House {... */\n  mstore(0x40, 0x80)\n    /* \"contracts/House.sol\":111:172  constructor() {... */\n  callvalue\n  dup1\n  iszero\n  tag_1\n  jumpi\n  0x00\n  dup1\n  revert\ntag_1:\n  pop\n    /* \"contracts/House.sol\":154:164  msg.sender */\n  caller\n    /* \"contracts/House.sol\":135:143  landlord */\n  0x00\n  dup1\n    /* \"contracts/House.sol\":135:165  landlord = payable(msg.sender) */\n  0x0100\n  exp\n  dup2\n  sload\n  dup2\n  0xffffffffffffffffffffffffffffffffffffffff\n  mul\n  not\n  and\n  swap1\n  dup4\n  0xffffffffffffffffffffffffffffffffffffffff\n  and\n  mul\n  or\n  swap1\n  sstore\n  pop\n    /* \"contracts/House.sol\":33:5423  contract House {... */\n  dataSize(sub_0)\n  dup1\n  dataOffset(sub_0)\n  0x00\n  codecopy\n  0x00\n  return\nstop\n\nsub_0: assembly {\n        /* \"contracts/House.sol\":33:5423  contract House {... */\n      mstore(0x40, 0x80)\n      jumpi(tag_1, lt(calldatasize, 0x04))\n      shr(0xe0, calldataload(0x00))\n      dup1\n      0xcba6c356\n      gt\n      tag_9\n      jumpi\n      dup1\n      0xcba6c356\n      eq\n      tag_5\n      jumpi\n      dup1\n      0xd18f7e28\n      eq\n      tag_6\n      jumpi\n      dup1\n      0xd9e8843f\n      eq\n      tag_7\n      jumpi\n      dup1\n      0xe1590cb6\n      eq\n      tag_8\n      jumpi\n      jump(tag_1)\n    tag_9:\n      dup1\n      0x2ab618\n      eq\n      tag_2\n      jumpi\n      dup1\n      0x33a5acdd\n      eq\n      tag_3\n      jumpi\n      dup1\n      0x9a026924\n      eq\n      tag_4\n      jumpi\n    tag_1:\n      0x00\n      dup1\n      revert\n        /* \"contracts/House.sol\":2743:3263  function addRooms(uint _rooms, uint _rent, uint _security_deposit) public onlyLandlord {... */\n    tag_2:\n      callvalue\n      dup1\n      iszero\n      tag_10\n      jumpi\n      0x00\n      dup1\n      revert\n    tag_10:\n      pop\n      tag_11\n      0x04\n      dup1\n      calldatasize\n      sub\n      dup2\n      add\n      swap1\n      tag_12\n      swap2\n      swap1\n      tag_13\n      jump\t// in\n    tag_12:\n      tag_14\n      jump\t// in\n    tag_11:\n      stop\n        /* \"contracts/House.sol\":695:747  mapping(uint => Payment[]) public Payments_by_Number */\n    tag_3:\n      callvalue\n      dup1\n      iszero\n      tag_15\n      jumpi\n      0x00\n      dup1\n      revert\n    tag_15:\n      pop\n      tag_16\n      0x04\n      dup1\n      calldatasize\n      sub\n      dup2\n      add\n      swap1\n      tag_17\n      swap2\n      swap1\n      tag_18\n      jump\t// in\n    tag_17:\n      tag_19\n      jump\t// in\n    tag_16:\n      mload(0x40)\n      tag_20\n      swap4\n      swap3\n      swap2\n      swap1\n      tag_21\n      jump\t// in\n    tag_20:\n      mload(0x40)\n      dup1\n      swap2\n      sub\n      swap1\n      return\n        /* \"contracts/House.sol\":4912:5421  function terminateAgreement(uint _room_number) public payable onlyLandlord() enoughSecurityDeposit(_room_number) {... */\n    tag_4:\n      tag_22\n      0x04\n      dup1\n      calldatasize\n      sub\n      dup2\n      add\n      swap1\n      tag_23\n      swap2\n      swap1\n      tag_24\n      jump\t// in\n    tag_23:\n      tag_25\n      jump\t// in\n    tag_22:\n      stop\n        /* \"contracts/House.sol\":310:354  mapping(uint => Room) public Rooms_by_Number */\n    tag_5:\n      callvalue\n      dup1\n      iszero\n      tag_26\n      jumpi\n      0x00\n      dup1\n      revert\n    tag_26:\n      pop\n      tag_27\n      0x04\n      dup1\n      calldatasize\n      sub\n      dup2\n      add\n      swap1\n      tag_28\n      swap2\n      swap1\n      tag_24\n      jump\t// in\n    tag_28:\n      tag_29\n      jump\t// in\n    tag_27:\n      mload(0x40)\n      tag_30\n      swap5\n      swap4\n      swap3\n      swap2\n      swap1\n      tag_31\n      jump\t// in\n    tag_30:\n      mload(0x40)\n      dup1\n      swap2\n      sub\n      swap1\n      return\n        /* \"contracts/House.sol\":535:589  mapping(uint => Agreement) public Agreements_by_Number */\n    tag_6:\n      callvalue\n      dup1\n      iszero\n      tag_32\n      jumpi\n      0x00\n      dup1\n      revert\n    tag_32:\n      pop\n      tag_33\n      0x04\n      dup1\n      calldatasize\n      sub\n      dup2\n      add\n      swap1\n      tag_34\n      swap2\n      swap1\n      tag_24\n      jump\t// in\n    tag_34:\n      tag_35\n      jump\t// in\n    tag_33:\n      mload(0x40)\n      tag_36\n      swap6\n      swap5\n      swap4\n      swap3\n      swap2\n      swap1\n      tag_37\n      jump\t// in\n    tag_36:\n      mload(0x40)\n      dup1\n      swap2\n      sub\n      swap1\n      return\n        /* \"contracts/House.sol\":4311:4906  function payRent(uint _room_number) public payable onlyTenant(_room_number) onlyIfPaymentsLeft(_room_number) enoughRent(_room_number) {... */\n    tag_7:\n      tag_38\n      0x04\n      dup1\n      calldatasize\n      sub\n      dup2\n      add\n      swap1\n      tag_39\n      swap2\n      swap1\n      tag_24\n      jump\t// in\n    tag_39:\n      tag_40\n      jump\t// in\n    tag_38:\n      stop\n        /* \"contracts/House.sol\":3331:4305  function signAgreement(uint _room_number, uint _duration) public payable notLandlord() enoughAgreementFee(_room_number) onlyIfVacant(_room_number) {... */\n    tag_8:\n      tag_41\n      0x04\n      dup1\n      calldatasize\n      sub\n      dup2\n      add\n      swap1\n      tag_42\n      swap2\n      swap1\n      tag_18\n      jump\t// in\n    tag_42:\n      tag_43\n      jump\t// in\n    tag_41:\n      stop\n        /* \"contracts/House.sol\":2743:3263  function addRooms(uint _rooms, uint _rent, uint _security_deposit) public onlyLandlord {... */\n    tag_14:\n        /* \"contracts/House.sol\":860:868  landlord */\n      0x00\n      dup1\n      sload\n      swap1\n      0x0100\n      exp\n      swap1\n      div\n      0xffffffffffffffffffffffffffffffffffffffff\n      and\n        /* \"contracts/House.sol\":846:868  msg.sender == landlord */\n      0xffffffffffffffffffffffffffffffffffffffff\n      and\n        /* \"contracts/House.sol\":846:856  msg.sender */\n      caller\n        /* \"contracts/House.sol\":846:868  msg.sender == landlord */\n      0xffffffffffffffffffffffffffffffffffffffff\n      and\n      eq\n        /* \"contracts/House.sol\":838:904  require(msg.sender == landlord, \"Only the landlord can add rooms\") */\n      tag_45\n      jumpi\n      mload(0x40)\n      0x08c379a000000000000000000000000000000000000000000000000000000000\n      dup2\n      mstore\n      0x04\n      add\n      tag_46\n      swap1\n      tag_47\n      jump\t// in\n    tag_46:\n      mload(0x40)\n      dup1\n      swap2\n      sub\n      swap1\n      revert\n    tag_45:\n        /* \"contracts/House.sol\":2870:2871  0 */\n      0x00\n        /* \"contracts/House.sol\":2848:2872  msg.sender != address(0) */\n      0xffffffffffffffffffffffffffffffffffffffff\n      and\n        /* \"contracts/House.sol\":2848:2858  msg.sender */\n      caller\n        /* \"contracts/House.sol\":2848:2872  msg.sender != address(0) */\n      0xffffffffffffffffffffffffffffffffffffffff\n      and\n      eq\n      iszero\n        /* \"contracts/House.sol\":2840:2873  require(msg.sender != address(0)) */\n      tag_49\n      jumpi\n      0x00\n      dup1\n      revert\n    tag_49:\n        /* \"contracts/House.sol\":2883:2896  bool _vacancy */\n      0x00\n        /* \"contracts/House.sol\":2899:2903  true */\n      0x01\n        /* \"contracts/House.sol\":2883:2903  bool _vacancy = true */\n      swap1\n      pop\n        /* \"contracts/House.sol\":2918:2924  uint i */\n      0x00\n        /* \"contracts/House.sol\":2913:3257  for (uint i = 0; i < _rooms; i++) {... */\n    tag_50:\n        /* \"contracts/House.sol\":2934:2940  _rooms */\n      dup5\n        /* \"contracts/House.sol\":2930:2931  i */\n      dup2\n        /* \"contracts/House.sol\":2930:2940  i < _rooms */\n      lt\n        /* \"contracts/House.sol\":2913:3257  for (uint i = 0; i < _rooms; i++) {... */\n      iszero\n      tag_51\n      jumpi\n        /* \"contracts/House.sol\":2998:3246  Room(... */\n      mload(0x40)\n      dup1\n      0x80\n      add\n      0x40\n      mstore\n      dup1\n        /* \"contracts/House.sol\":3020:3035  number_of_rooms */\n      sload(0x01)\n        /* \"contracts/House.sol\":2998:3246  Room(... */\n      dup2\n      mstore\n      0x20\n      add\n        /* \"contracts/House.sol\":3077:3082  _rent */\n      dup6\n        /* \"contracts/House.sol\":2998:3246  Room(... */\n      dup2\n      mstore\n      0x20\n      add\n        /* \"contracts/House.sol\":3136:3153  _security_deposit */\n      dup5\n        /* \"contracts/House.sol\":2998:3246  Room(... */\n      dup2\n      mstore\n      0x20\n      add\n        /* \"contracts/House.sol\":3197:3205  _vacancy */\n      dup4\n        /* \"contracts/House.sol\":2998:3246  Room(... */\n      iszero\n      iszero\n      dup2\n      mstore\n      pop\n        /* \"contracts/House.sol\":2961:2976  Rooms_by_Number */\n      0x02\n        /* \"contracts/House.sol\":2961:2995  Rooms_by_Number[number_of_rooms++] */\n      0x00\n        /* \"contracts/House.sol\":2977:2992  number_of_rooms */\n      0x01\n      0x00\n        /* \"contracts/House.sol\":2977:2994  number_of_rooms++ */\n      dup2\n      sload\n      dup1\n      swap3\n      swap2\n      swap1\n      tag_53\n      swap1\n      tag_54\n      jump\t// in\n    tag_53:\n      swap2\n      swap1\n      pop\n      sstore\n        /* \"contracts/House.sol\":2961:2995  Rooms_by_Number[number_of_rooms++] */\n      dup2\n      mstore\n      0x20\n      add\n      swap1\n      dup2\n      mstore\n      0x20\n      add\n      0x00\n      keccak256\n        /* \"contracts/House.sol\":2961:3246  Rooms_by_Number[number_of_rooms++] = Room(... */\n      0x00\n      dup3\n      add\n      mload\n      dup2\n      0x00\n      add\n      sstore\n      0x20\n      dup3\n      add\n      mload\n      dup2\n      0x01\n      add\n      sstore\n      0x40\n      dup3\n      add\n      mload\n      dup2\n      0x02\n      add\n      sstore\n      0x60\n      dup3\n      add\n      mload\n      dup2\n      0x03\n      add\n      exp(0x0100, 0x00)\n      dup2\n      sload\n      dup2\n      0xff\n      mul\n      not\n      and\n      swap1\n      dup4\n      iszero\n      iszero\n      mul\n      or\n      swap1\n      sstore\n      pop\n      swap1\n      pop\n      pop\n        /* \"contracts/House.sol\":2942:2945  i++ */\n      dup1\n      dup1\n      tag_55\n      swap1\n      tag_54\n      jump\t// in\n    tag_55:\n      swap2\n      pop\n      pop\n        /* \"contracts/House.sol\":2913:3257  for (uint i = 0; i < _rooms; i++) {... */\n      jump(tag_50)\n    tag_51:\n      pop\n        /* \"contracts/House.sol\":2830:3263  {... */\n      pop\n        /* \"contracts/House.sol\":2743:3263  function addRooms(uint _rooms, uint _rent, uint _security_deposit) public onlyLandlord {... */\n      pop\n      pop\n      pop\n      jump\t// out\n        /* \"contracts/House.sol\":695:747  mapping(uint => Payment[]) public Payments_by_Number */\n    tag_19:\n      mstore(0x20, 0x04)\n      dup2\n      0x00\n      mstore\n      keccak256(0x00, 0x40)\n      dup2\n      dup2\n      sload\n      dup2\n      lt\n      tag_56\n      jumpi\n      0x00\n      dup1\n      revert\n    tag_56:\n      swap1\n      0x00\n      mstore\n      keccak256(0x00, 0x20)\n      swap1\n      0x03\n      mul\n      add\n      0x00\n      swap2\n      pop\n      swap2\n      pop\n      pop\n      dup1\n      0x00\n      add\n      sload\n      swap1\n      dup1\n      0x01\n      add\n      sload\n      swap1\n      dup1\n      0x02\n      add\n      sload\n      swap1\n      pop\n      dup4\n      jump\t// out\n        /* \"contracts/House.sol\":4912:5421  function terminateAgreement(uint _room_number) public payable onlyLandlord() enoughSecurityDeposit(_room_number) {... */\n    tag_25:\n        /* \"contracts/House.sol\":860:868  landlord */\n      0x00\n      dup1\n      sload\n      swap1\n      0x0100\n      exp\n      swap1\n      div\n      0xffffffffffffffffffffffffffffffffffffffff\n      and\n        /* \"contracts/House.sol\":846:868  msg.sender == landlord */\n      0xffffffffffffffffffffffffffffffffffffffff\n      and\n        /* \"contracts/House.sol\":846:856  msg.sender */\n      caller\n        /* \"contracts/House.sol\":846:868  msg.sender == landlord */\n      0xffffffffffffffffffffffffffffffffffffffff\n      and\n      eq\n        /* \"contracts/House.sol\":838:904  require(msg.sender == landlord, \"Only the landlord can add rooms\") */\n      tag_59\n      jumpi\n      mload(0x40)\n      0x08c379a000000000000000000000000000000000000000000000000000000000\n      dup2\n      mstore\n      0x04\n      add\n      tag_60\n      swap1\n      tag_47\n      jump\t// in\n    tag_60:\n      mload(0x40)\n      dup1\n      swap2\n      sub\n      swap1\n      revert\n    tag_59:\n        /* \"contracts/House.sol\":5011:5023  _room_number */\n      dup1\n        /* \"contracts/House.sol\":2595:2610  Rooms_by_Number */\n      0x02\n        /* \"contracts/House.sol\":2595:2624  Rooms_by_Number[_room_number] */\n      0x00\n        /* \"contracts/House.sol\":2611:2623  _room_number */\n      dup3\n        /* \"contracts/House.sol\":2595:2624  Rooms_by_Number[_room_number] */\n      dup2\n      mstore\n      0x20\n      add\n      swap1\n      dup2\n      mstore\n      0x20\n      add\n      0x00\n      keccak256\n        /* \"contracts/House.sol\":2595:2641  Rooms_by_Number[_room_number].security_deposit */\n      0x02\n      add\n      sload\n        /* \"contracts/House.sol\":2582:2591  msg.value */\n      callvalue\n        /* \"contracts/House.sol\":2582:2641  msg.value >= Rooms_by_Number[_room_number].security_deposit */\n      lt\n      iszero\n        /* \"contracts/House.sol\":2574:2683  require(msg.value >= Rooms_by_Number[_room_number].security_deposit, \"Insufficient funds for deposit refund\") */\n      tag_62\n      jumpi\n      mload(0x40)\n      0x08c379a000000000000000000000000000000000000000000000000000000000\n      dup2\n      mstore\n      0x04\n      add\n      tag_63\n      swap1\n      tag_64\n      jump\t// in\n    tag_63:\n      mload(0x40)\n      dup1\n      swap2\n      sub\n      swap1\n      revert\n    tag_62:\n        /* \"contracts/House.sol\":5065:5066  0 */\n      0x00\n        /* \"contracts/House.sol\":5043:5067  msg.sender != address(0) */\n      0xffffffffffffffffffffffffffffffffffffffff\n      and\n        /* \"contracts/House.sol\":5043:5053  msg.sender */\n      caller\n        /* \"contracts/House.sol\":5043:5067  msg.sender != address(0) */\n      0xffffffffffffffffffffffffffffffffffffffff\n      and\n      eq\n      iszero\n        /* \"contracts/House.sol\":5035:5068  require(msg.sender != address(0)) */\n      tag_66\n      jumpi\n      0x00\n      dup1\n      revert\n    tag_66:\n        /* \"contracts/House.sol\":5126:5131  false */\n      0x00\n        /* \"contracts/House.sol\":5086:5131  Rooms_by_Number[_room_number].vacant == false */\n      iszero\n      iszero\n        /* \"contracts/House.sol\":5086:5101  Rooms_by_Number */\n      0x02\n        /* \"contracts/House.sol\":5086:5115  Rooms_by_Number[_room_number] */\n      0x00\n        /* \"contracts/House.sol\":5102:5114  _room_number */\n      dup5\n        /* \"contracts/House.sol\":5086:5115  Rooms_by_Number[_room_number] */\n      dup2\n      mstore\n      0x20\n      add\n      swap1\n      dup2\n      mstore\n      0x20\n      add\n      0x00\n      keccak256\n        /* \"contracts/House.sol\":5086:5122  Rooms_by_Number[_room_number].vacant */\n      0x03\n      add\n      0x00\n      swap1\n      sload\n      swap1\n      0x0100\n      exp\n      swap1\n      div\n      0xff\n      and\n        /* \"contracts/House.sol\":5086:5131  Rooms_by_Number[_room_number].vacant == false */\n      iszero\n      iszero\n      eq\n        /* \"contracts/House.sol\":5078:5158  require(Rooms_by_Number[_room_number].vacant == false, \"Room is already vacant\") */\n      tag_67\n      jumpi\n      mload(0x40)\n      0x08c379a000000000000000000000000000000000000000000000000000000000\n      dup2\n      mstore\n      0x04\n      add\n      tag_68\n      swap1\n      tag_69\n      jump\t// in\n    tag_68:\n      mload(0x40)\n      dup1\n      swap2\n      sub\n      swap1\n      revert\n    tag_67:\n        /* \"contracts/House.sol\":5168:5190  uint _security_deposit */\n      0x00\n        /* \"contracts/House.sol\":5193:5208  Rooms_by_Number */\n      0x02\n        /* \"contracts/House.sol\":5193:5222  Rooms_by_Number[_room_number] */\n      0x00\n        /* \"contracts/House.sol\":5209:5221  _room_number */\n      dup5\n        /* \"contracts/House.sol\":5193:5222  Rooms_by_Number[_room_number] */\n      dup2\n      mstore\n      0x20\n      add\n      swap1\n      dup2\n      mstore\n      0x20\n      add\n      0x00\n      keccak256\n        /* \"contracts/House.sol\":5193:5239  Rooms_by_Number[_room_number].security_deposit */\n      0x02\n      add\n      sload\n        /* \"contracts/House.sol\":5168:5239  uint _security_deposit = Rooms_by_Number[_room_number].security_deposit */\n      swap1\n      pop\n        /* \"contracts/House.sol\":5249:5272  address payable _tenant */\n      0x00\n        /* \"contracts/House.sol\":5275:5295  Agreements_by_Number */\n      0x03\n        /* \"contracts/House.sol\":5275:5309  Agreements_by_Number[_room_number] */\n      0x00\n        /* \"contracts/House.sol\":5296:5308  _room_number */\n      dup6\n        /* \"contracts/House.sol\":5275:5309  Agreements_by_Number[_room_number] */\n      dup2\n      mstore\n      0x20\n      add\n      swap1\n      dup2\n      mstore\n      0x20\n      add\n      0x00\n      keccak256\n        /* \"contracts/House.sol\":5275:5316  Agreements_by_Number[_room_number].tenant */\n      0x04\n      add\n      0x00\n      swap1\n      sload\n      swap1\n      0x0100\n      exp\n      swap1\n      div\n      0xffffffffffffffffffffffffffffffffffffffff\n      and\n        /* \"contracts/House.sol\":5249:5316  address payable _tenant = Agreements_by_Number[_room_number].tenant */\n      swap1\n      pop\n        /* \"contracts/House.sol\":5326:5333  _tenant */\n      dup1\n        /* \"contracts/House.sol\":5326:5342  _tenant.transfer */\n      0xffffffffffffffffffffffffffffffffffffffff\n      and\n        /* \"contracts/House.sol\":5326:5361  _tenant.transfer(_security_deposit) */\n      0x08fc\n        /* \"contracts/House.sol\":5343:5360  _security_deposit */\n      dup4\n        /* \"contracts/House.sol\":5326:5361  _tenant.transfer(_security_deposit) */\n      swap1\n      dup2\n      iszero\n      mul\n      swap1\n      mload(0x40)\n      0x00\n      mload(0x40)\n      dup1\n      dup4\n      sub\n      dup2\n      dup6\n      dup9\n      dup9\n      call\n      swap4\n      pop\n      pop\n      pop\n      pop\n      iszero\n      dup1\n      iszero\n      tag_71\n      jumpi\n      returndatasize\n      0x00\n      dup1\n      returndatacopy\n      revert(0x00, returndatasize)\n    tag_71:\n      pop\n        /* \"contracts/House.sol\":5410:5414  true */\n      0x01\n        /* \"contracts/House.sol\":5371:5386  Rooms_by_Number */\n      0x02\n        /* \"contracts/House.sol\":5371:5400  Rooms_by_Number[_room_number] */\n      0x00\n        /* \"contracts/House.sol\":5387:5399  _room_number */\n      dup7\n        /* \"contracts/House.sol\":5371:5400  Rooms_by_Number[_room_number] */\n      dup2\n      mstore\n      0x20\n      add\n      swap1\n      dup2\n      mstore\n      0x20\n      add\n      0x00\n      keccak256\n        /* \"contracts/House.sol\":5371:5407  Rooms_by_Number[_room_number].vacant */\n      0x03\n      add\n      0x00\n        /* \"contracts/House.sol\":5371:5414  Rooms_by_Number[_room_number].vacant = true */\n      0x0100\n      exp\n      dup2\n      sload\n      dup2\n      0xff\n      mul\n      not\n      and\n      swap1\n      dup4\n      iszero\n      iszero\n      mul\n      or\n      swap1\n      sstore\n      pop\n        /* \"contracts/House.sol\":5025:5421  {... */\n      pop\n      pop\n        /* \"contracts/House.sol\":914:915  _ */\n      pop\n        /* \"contracts/House.sol\":4912:5421  function terminateAgreement(uint _room_number) public payable onlyLandlord() enoughSecurityDeposit(_room_number) {... */\n      pop\n      jump\t// out\n        /* \"contracts/House.sol\":310:354  mapping(uint => Room) public Rooms_by_Number */\n    tag_29:\n      mstore(0x20, 0x02)\n      dup1\n      0x00\n      mstore\n      keccak256(0x00, 0x40)\n      0x00\n      swap2\n      pop\n      swap1\n      pop\n      dup1\n      0x00\n      add\n      sload\n      swap1\n      dup1\n      0x01\n      add\n      sload\n      swap1\n      dup1\n      0x02\n      add\n      sload\n      swap1\n      dup1\n      0x03\n      add\n      0x00\n      swap1\n      sload\n      swap1\n      0x0100\n      exp\n      swap1\n      div\n      0xff\n      and\n      swap1\n      pop\n      dup5\n      jump\t// out\n        /* \"contracts/House.sol\":535:589  mapping(uint => Agreement) public Agreements_by_Number */\n    tag_35:\n      mstore(0x20, 0x03)\n      dup1\n      0x00\n      mstore\n      keccak256(0x00, 0x40)\n      0x00\n      swap2\n      pop\n      swap1\n      pop\n      dup1\n      0x00\n      add\n      sload\n      swap1\n      dup1\n      0x01\n      add\n      sload\n      swap1\n      dup1\n      0x02\n      add\n      sload\n      swap1\n      dup1\n      0x03\n      add\n      sload\n      swap1\n      dup1\n      0x04\n      add\n      0x00\n      swap1\n      sload\n      swap1\n      0x0100\n      exp\n      swap1\n      div\n      0xffffffffffffffffffffffffffffffffffffffff\n      and\n      swap1\n      pop\n      dup6\n      jump\t// out\n        /* \"contracts/House.sol\":4311:4906  function payRent(uint _room_number) public payable onlyTenant(_room_number) onlyIfPaymentsLeft(_room_number) enoughRent(_room_number) {... */\n    tag_40:\n        /* \"contracts/House.sol\":4373:4385  _room_number */\n      dup1\n        /* \"contracts/House.sol\":1777:1797  Agreements_by_Number */\n      0x03\n        /* \"contracts/House.sol\":1777:1811  Agreements_by_Number[_room_number] */\n      0x00\n        /* \"contracts/House.sol\":1798:1810  _room_number */\n      dup3\n        /* \"contracts/House.sol\":1777:1811  Agreements_by_Number[_room_number] */\n      dup2\n      mstore\n      0x20\n      add\n      swap1\n      dup2\n      mstore\n      0x20\n      add\n      0x00\n      keccak256\n        /* \"contracts/House.sol\":1777:1818  Agreements_by_Number[_room_number].tenant */\n      0x04\n      add\n      0x00\n      swap1\n      sload\n      swap1\n      0x0100\n      exp\n      swap1\n      div\n      0xffffffffffffffffffffffffffffffffffffffff\n      and\n        /* \"contracts/House.sol\":1763:1818  msg.sender == Agreements_by_Number[_room_number].tenant */\n      0xffffffffffffffffffffffffffffffffffffffff\n      and\n        /* \"contracts/House.sol\":1763:1773  msg.sender */\n      caller\n        /* \"contracts/House.sol\":1763:1818  msg.sender == Agreements_by_Number[_room_number].tenant */\n      0xffffffffffffffffffffffffffffffffffffffff\n      and\n      eq\n        /* \"contracts/House.sol\":1755:1851  require(msg.sender == Agreements_by_Number[_room_number].tenant, \"Tenant and room do not match\") */\n      tag_73\n      jumpi\n      mload(0x40)\n      0x08c379a000000000000000000000000000000000000000000000000000000000\n      dup2\n      mstore\n      0x04\n      add\n      tag_74\n      swap1\n      tag_75\n      jump\t// in\n    tag_74:\n      mload(0x40)\n      dup1\n      swap2\n      sub\n      swap1\n      revert\n    tag_73:\n        /* \"contracts/House.sol\":4406:4418  _room_number */\n      dup2\n        /* \"contracts/House.sol\":1989:2008  uint _payments_left */\n      0x00\n        /* \"contracts/House.sol\":2063:2083  Agreements_by_Number */\n      0x03\n        /* \"contracts/House.sol\":2063:2097  Agreements_by_Number[_room_number] */\n      0x00\n        /* \"contracts/House.sol\":2084:2096  _room_number */\n      dup4\n        /* \"contracts/House.sol\":2063:2097  Agreements_by_Number[_room_number] */\n      dup2\n      mstore\n      0x20\n      add\n      swap1\n      dup2\n      mstore\n      0x20\n      add\n      0x00\n      keccak256\n        /* \"contracts/House.sol\":2063:2116  Agreements_by_Number[_room_number].number_of_payments */\n      0x02\n      add\n      sload\n        /* \"contracts/House.sol\":2011:2031  Agreements_by_Number */\n      0x03\n        /* \"contracts/House.sol\":2011:2045  Agreements_by_Number[_room_number] */\n      0x00\n        /* \"contracts/House.sol\":2032:2044  _room_number */\n      dup5\n        /* \"contracts/House.sol\":2011:2045  Agreements_by_Number[_room_number] */\n      dup2\n      mstore\n      0x20\n      add\n      swap1\n      dup2\n      mstore\n      0x20\n      add\n      0x00\n      keccak256\n        /* \"contracts/House.sol\":2011:2060  Agreements_by_Number[_room_number].lease_duration */\n      0x01\n      add\n      sload\n        /* \"contracts/House.sol\":2011:2116  Agreements_by_Number[_room_number].lease_duration - Agreements_by_Number[_room_number].number_of_payments */\n      tag_77\n      swap2\n      swap1\n      tag_78\n      jump\t// in\n    tag_77:\n        /* \"contracts/House.sol\":1989:2116  uint _payments_left = Agreements_by_Number[_room_number].lease_duration - Agreements_by_Number[_room_number].number_of_payments */\n      swap1\n      pop\n        /* \"contracts/House.sol\":2151:2152  0 */\n      0x00\n        /* \"contracts/House.sol\":2134:2148  _payments_left */\n      dup2\n        /* \"contracts/House.sol\":2134:2152  _payments_left > 0 */\n      gt\n        /* \"contracts/House.sol\":2126:2179  require(_payments_left > 0, \"Your lease is paid off\") */\n      tag_79\n      jumpi\n      mload(0x40)\n      0x08c379a000000000000000000000000000000000000000000000000000000000\n      dup2\n      mstore\n      0x04\n      add\n      tag_80\n      swap1\n      tag_81\n      jump\t// in\n    tag_80:\n      mload(0x40)\n      dup1\n      swap2\n      sub\n      swap1\n      revert\n    tag_79:\n        /* \"contracts/House.sol\":4431:4443  _room_number */\n      dup4\n        /* \"contracts/House.sol\":2329:2344  Rooms_by_Number */\n      0x02\n        /* \"contracts/House.sol\":2329:2358  Rooms_by_Number[_room_number] */\n      0x00\n        /* \"contracts/House.sol\":2345:2357  _room_number */\n      dup3\n        /* \"contracts/House.sol\":2329:2358  Rooms_by_Number[_room_number] */\n      dup2\n      mstore\n      0x20\n      add\n      swap1\n      dup2\n      mstore\n      0x20\n      add\n      0x00\n      keccak256\n        /* \"contracts/House.sol\":2329:2373  Rooms_by_Number[_room_number].rent_per_month */\n      0x01\n      add\n      sload\n        /* \"contracts/House.sol\":2316:2325  msg.value */\n      callvalue\n        /* \"contracts/House.sol\":2316:2373  msg.value >= Rooms_by_Number[_room_number].rent_per_month */\n      lt\n      iszero\n        /* \"contracts/House.sol\":2308:2413  require(msg.value >= Rooms_by_Number[_room_number].rent_per_month, \"Insufficient funds for rent payment\") */\n      tag_83\n      jumpi\n      mload(0x40)\n      0x08c379a000000000000000000000000000000000000000000000000000000000\n      dup2\n      mstore\n      0x04\n      add\n      tag_84\n      swap1\n      tag_85\n      jump\t// in\n    tag_84:\n      mload(0x40)\n      dup1\n      swap2\n      sub\n      swap1\n      revert\n    tag_83:\n        /* \"contracts/House.sol\":4485:4486  0 */\n      0x00\n        /* \"contracts/House.sol\":4463:4487  msg.sender != address(0) */\n      0xffffffffffffffffffffffffffffffffffffffff\n      and\n        /* \"contracts/House.sol\":4463:4473  msg.sender */\n      caller\n        /* \"contracts/House.sol\":4463:4487  msg.sender != address(0) */\n      0xffffffffffffffffffffffffffffffffffffffff\n      and\n      eq\n      iszero\n        /* \"contracts/House.sol\":4455:4488  require(msg.sender != address(0)) */\n      tag_87\n      jumpi\n      0x00\n      dup1\n      revert\n    tag_87:\n        /* \"contracts/House.sol\":4498:4508  uint _rent */\n      0x00\n        /* \"contracts/House.sol\":4511:4526  Rooms_by_Number */\n      0x02\n        /* \"contracts/House.sol\":4511:4540  Rooms_by_Number[_room_number] */\n      0x00\n        /* \"contracts/House.sol\":4527:4539  _room_number */\n      dup8\n        /* \"contracts/House.sol\":4511:4540  Rooms_by_Number[_room_number] */\n      dup2\n      mstore\n      0x20\n      add\n      swap1\n      dup2\n      mstore\n      0x20\n      add\n      0x00\n      keccak256\n        /* \"contracts/House.sol\":4511:4555  Rooms_by_Number[_room_number].rent_per_month */\n      0x01\n      add\n      sload\n        /* \"contracts/House.sol\":4498:4555  uint _rent = Rooms_by_Number[_room_number].rent_per_month */\n      swap1\n      pop\n        /* \"contracts/House.sol\":4565:4573  landlord */\n      0x00\n      dup1\n      sload\n      swap1\n      0x0100\n      exp\n      swap1\n      div\n      0xffffffffffffffffffffffffffffffffffffffff\n      and\n        /* \"contracts/House.sol\":4565:4582  landlord.transfer */\n      0xffffffffffffffffffffffffffffffffffffffff\n      and\n        /* \"contracts/House.sol\":4565:4589  landlord.transfer(_rent) */\n      0x08fc\n        /* \"contracts/House.sol\":4583:4588  _rent */\n      dup3\n        /* \"contracts/House.sol\":4565:4589  landlord.transfer(_rent) */\n      swap1\n      dup2\n      iszero\n      mul\n      swap1\n      mload(0x40)\n      0x00\n      mload(0x40)\n      dup1\n      dup4\n      sub\n      dup2\n      dup6\n      dup9\n      dup9\n      call\n      swap4\n      pop\n      pop\n      pop\n      pop\n      iszero\n      dup1\n      iszero\n      tag_89\n      jumpi\n      returndatasize\n      0x00\n      dup1\n      returndatacopy\n      revert(0x00, returndatasize)\n    tag_89:\n      pop\n        /* \"contracts/House.sol\":4599:4618  uint payment_number */\n      0x00\n        /* \"contracts/House.sol\":4621:4641  Agreements_by_Number */\n      0x03\n        /* \"contracts/House.sol\":4621:4655  Agreements_by_Number[_room_number] */\n      0x00\n        /* \"contracts/House.sol\":4642:4654  _room_number */\n      dup9\n        /* \"contracts/House.sol\":4621:4655  Agreements_by_Number[_room_number] */\n      dup2\n      mstore\n      0x20\n      add\n      swap1\n      dup2\n      mstore\n      0x20\n      add\n      0x00\n      keccak256\n        /* \"contracts/House.sol\":4621:4674  Agreements_by_Number[_room_number].number_of_payments */\n      0x02\n      add\n      sload\n        /* \"contracts/House.sol\":4599:4674  uint payment_number = Agreements_by_Number[_room_number].number_of_payments */\n      swap1\n      pop\n        /* \"contracts/House.sol\":4735:4899  Payment(... */\n      mload(0x40)\n      dup1\n      0x60\n      add\n      0x40\n      mstore\n      dup1\n        /* \"contracts/House.sol\":4756:4768  _room_number */\n      dup9\n        /* \"contracts/House.sol\":4735:4899  Payment(... */\n      dup2\n      mstore\n      0x20\n      add\n        /* \"contracts/House.sol\":4808:4813  _rent */\n      dup4\n        /* \"contracts/House.sol\":4735:4899  Payment(... */\n      dup2\n      mstore\n      0x20\n      add\n        /* \"contracts/House.sol\":4851:4866  block.timestamp */\n      timestamp\n        /* \"contracts/House.sol\":4735:4899  Payment(... */\n      dup2\n      mstore\n      pop\n        /* \"contracts/House.sol\":4684:4702  Payments_by_Number */\n      0x04\n        /* \"contracts/House.sol\":4684:4716  Payments_by_Number[_room_number] */\n      0x00\n        /* \"contracts/House.sol\":4703:4715  _room_number */\n      dup10\n        /* \"contracts/House.sol\":4684:4716  Payments_by_Number[_room_number] */\n      dup2\n      mstore\n      0x20\n      add\n      swap1\n      dup2\n      mstore\n      0x20\n      add\n      0x00\n      keccak256\n        /* \"contracts/House.sol\":4717:4731  payment_number */\n      dup3\n        /* \"contracts/House.sol\":4684:4732  Payments_by_Number[_room_number][payment_number] */\n      dup2\n      sload\n      dup2\n      lt\n      tag_90\n      jumpi\n      tag_91\n      tag_92\n      jump\t// in\n    tag_91:\n    tag_90:\n      swap1\n      0x00\n      mstore\n      keccak256(0x00, 0x20)\n      swap1\n      0x03\n      mul\n      add\n        /* \"contracts/House.sol\":4684:4899  Payments_by_Number[_room_number][payment_number] = Payment(... */\n      0x00\n      dup3\n      add\n      mload\n      dup2\n      0x00\n      add\n      sstore\n      0x20\n      dup3\n      add\n      mload\n      dup2\n      0x01\n      add\n      sstore\n      0x40\n      dup3\n      add\n      mload\n      dup2\n      0x02\n      add\n      sstore\n      swap1\n      pop\n      pop\n        /* \"contracts/House.sol\":4445:4906  {... */\n      pop\n      pop\n        /* \"contracts/House.sol\":2189:2190  _ */\n      pop\n        /* \"contracts/House.sol\":1979:2197  {... */\n      pop\n        /* \"contracts/House.sol\":1861:1862  _ */\n      pop\n        /* \"contracts/House.sol\":4311:4906  function payRent(uint _room_number) public payable onlyTenant(_room_number) onlyIfPaymentsLeft(_room_number) enoughRent(_room_number) {... */\n      pop\n      pop\n      jump\t// out\n        /* \"contracts/House.sol\":3331:4305  function signAgreement(uint _room_number, uint _duration) public payable notLandlord() enoughAgreementFee(_room_number) onlyIfVacant(_room_number) {... */\n    tag_43:\n        /* \"contracts/House.sol\":1045:1053  landlord */\n      0x00\n      dup1\n      sload\n      swap1\n      0x0100\n      exp\n      swap1\n      div\n      0xffffffffffffffffffffffffffffffffffffffff\n      and\n        /* \"contracts/House.sol\":1031:1053  msg.sender != landlord */\n      0xffffffffffffffffffffffffffffffffffffffff\n      and\n        /* \"contracts/House.sol\":1031:1041  msg.sender */\n      caller\n        /* \"contracts/House.sol\":1031:1053  msg.sender != landlord */\n      0xffffffffffffffffffffffffffffffffffffffff\n      and\n      eq\n      iszero\n        /* \"contracts/House.sol\":1023:1089  require(msg.sender != landlord, \"Only the landlord can add rooms\") */\n      tag_95\n      jumpi\n      mload(0x40)\n      0x08c379a000000000000000000000000000000000000000000000000000000000\n      dup2\n      mstore\n      0x04\n      add\n      tag_96\n      swap1\n      tag_47\n      jump\t// in\n    tag_96:\n      mload(0x40)\n      dup1\n      swap2\n      sub\n      swap1\n      revert\n    tag_95:\n        /* \"contracts/House.sol\":3437:3449  _room_number */\n      dup2\n        /* \"contracts/House.sol\":1259:1270  uint _total */\n      0x00\n        /* \"contracts/House.sol\":1320:1335  Rooms_by_Number */\n      0x02\n        /* \"contracts/House.sol\":1320:1349  Rooms_by_Number[_room_number] */\n      0x00\n        /* \"contracts/House.sol\":1336:1348  _room_number */\n      dup4\n        /* \"contracts/House.sol\":1320:1349  Rooms_by_Number[_room_number] */\n      dup2\n      mstore\n      0x20\n      add\n      swap1\n      dup2\n      mstore\n      0x20\n      add\n      0x00\n      keccak256\n        /* \"contracts/House.sol\":1320:1366  Rooms_by_Number[_room_number].security_deposit */\n      0x02\n      add\n      sload\n        /* \"contracts/House.sol\":1273:1288  Rooms_by_Number */\n      0x02\n        /* \"contracts/House.sol\":1273:1302  Rooms_by_Number[_room_number] */\n      0x00\n        /* \"contracts/House.sol\":1289:1301  _room_number */\n      dup5\n        /* \"contracts/House.sol\":1273:1302  Rooms_by_Number[_room_number] */\n      dup2\n      mstore\n      0x20\n      add\n      swap1\n      dup2\n      mstore\n      0x20\n      add\n      0x00\n      keccak256\n        /* \"contracts/House.sol\":1273:1317  Rooms_by_Number[_room_number].rent_per_month */\n      0x01\n      add\n      sload\n        /* \"contracts/House.sol\":1273:1366  Rooms_by_Number[_room_number].rent_per_month + Rooms_by_Number[_room_number].security_deposit */\n      tag_98\n      swap2\n      swap1\n      tag_99\n      jump\t// in\n    tag_98:\n        /* \"contracts/House.sol\":1259:1366  uint _total = Rooms_by_Number[_room_number].rent_per_month + Rooms_by_Number[_room_number].security_deposit */\n      swap1\n      pop\n        /* \"contracts/House.sol\":1397:1403  _total */\n      dup1\n        /* \"contracts/House.sol\":1384:1393  msg.value */\n      callvalue\n        /* \"contracts/House.sol\":1384:1403  msg.value >= _total */\n      lt\n      iszero\n        /* \"contracts/House.sol\":1376:1460  require(msg.value >= _total, \"You don't have enough funds to pay the agreement fee\") */\n      tag_100\n      jumpi\n      mload(0x40)\n      0x08c379a000000000000000000000000000000000000000000000000000000000\n      dup2\n      mstore\n      0x04\n      add\n      tag_101\n      swap1\n      tag_102\n      jump\t// in\n    tag_101:\n      mload(0x40)\n      dup1\n      swap2\n      sub\n      swap1\n      revert\n    tag_100:\n        /* \"contracts/House.sol\":3464:3476  _room_number */\n      dup4\n        /* \"contracts/House.sol\":1616:1620  true */\n      0x01\n        /* \"contracts/House.sol\":1576:1620  Rooms_by_Number[_room_number].vacant == true */\n      iszero\n      iszero\n        /* \"contracts/House.sol\":1576:1591  Rooms_by_Number */\n      0x02\n        /* \"contracts/House.sol\":1576:1605  Rooms_by_Number[_room_number] */\n      0x00\n        /* \"contracts/House.sol\":1592:1604  _room_number */\n      dup4\n        /* \"contracts/House.sol\":1576:1605  Rooms_by_Number[_room_number] */\n      dup2\n      mstore\n      0x20\n      add\n      swap1\n      dup2\n      mstore\n      0x20\n      add\n      0x00\n      keccak256\n        /* \"contracts/House.sol\":1576:1612  Rooms_by_Number[_room_number].vacant */\n      0x03\n      add\n      0x00\n      swap1\n      sload\n      swap1\n      0x0100\n      exp\n      swap1\n      div\n      0xff\n      and\n        /* \"contracts/House.sol\":1576:1620  Rooms_by_Number[_room_number].vacant == true */\n      iszero\n      iszero\n      eq\n        /* \"contracts/House.sol\":1568:1649  require(Rooms_by_Number[_room_number].vacant == true, \"Room is already occupied\") */\n      tag_104\n      jumpi\n      mload(0x40)\n      0x08c379a000000000000000000000000000000000000000000000000000000000\n      dup2\n      mstore\n      0x04\n      add\n      tag_105\n      swap1\n      tag_106\n      jump\t// in\n    tag_105:\n      mload(0x40)\n      dup1\n      swap2\n      sub\n      swap1\n      revert\n    tag_104:\n        /* \"contracts/House.sol\":3518:3519  0 */\n      0x00\n        /* \"contracts/House.sol\":3496:3520  msg.sender != address(0) */\n      0xffffffffffffffffffffffffffffffffffffffff\n      and\n        /* \"contracts/House.sol\":3496:3506  msg.sender */\n      caller\n        /* \"contracts/House.sol\":3496:3520  msg.sender != address(0) */\n      0xffffffffffffffffffffffffffffffffffffffff\n      and\n      eq\n      iszero\n        /* \"contracts/House.sol\":3488:3521  require(msg.sender != address(0)) */\n      tag_108\n      jumpi\n      0x00\n      dup1\n      revert\n    tag_108:\n        /* \"contracts/House.sol\":3531:3546  uint _total_fee */\n      0x00\n        /* \"contracts/House.sol\":3596:3611  Rooms_by_Number */\n      0x02\n        /* \"contracts/House.sol\":3596:3625  Rooms_by_Number[_room_number] */\n      0x00\n        /* \"contracts/House.sol\":3612:3624  _room_number */\n      dup8\n        /* \"contracts/House.sol\":3596:3625  Rooms_by_Number[_room_number] */\n      dup2\n      mstore\n      0x20\n      add\n      swap1\n      dup2\n      mstore\n      0x20\n      add\n      0x00\n      keccak256\n        /* \"contracts/House.sol\":3596:3642  Rooms_by_Number[_room_number].security_deposit */\n      0x02\n      add\n      sload\n        /* \"contracts/House.sol\":3549:3564  Rooms_by_Number */\n      0x02\n        /* \"contracts/House.sol\":3549:3578  Rooms_by_Number[_room_number] */\n      0x00\n        /* \"contracts/House.sol\":3565:3577  _room_number */\n      dup9\n        /* \"contracts/House.sol\":3549:3578  Rooms_by_Number[_room_number] */\n      dup2\n      mstore\n      0x20\n      add\n      swap1\n      dup2\n      mstore\n      0x20\n      add\n      0x00\n      keccak256\n        /* \"contracts/House.sol\":3549:3593  Rooms_by_Number[_room_number].rent_per_month */\n      0x01\n      add\n      sload\n        /* \"contracts/House.sol\":3549:3642  Rooms_by_Number[_room_number].rent_per_month + Rooms_by_Number[_room_number].security_deposit */\n      tag_109\n      swap2\n      swap1\n      tag_99\n      jump\t// in\n    tag_109:\n        /* \"contracts/House.sol\":3531:3642  uint _total_fee = Rooms_by_Number[_room_number].rent_per_month + Rooms_by_Number[_room_number].security_deposit */\n      swap1\n      pop\n        /* \"contracts/House.sol\":3652:3660  landlord */\n      0x00\n      dup1\n      sload\n      swap1\n      0x0100\n      exp\n      swap1\n      div\n      0xffffffffffffffffffffffffffffffffffffffff\n      and\n        /* \"contracts/House.sol\":3652:3669  landlord.transfer */\n      0xffffffffffffffffffffffffffffffffffffffff\n      and\n        /* \"contracts/House.sol\":3652:3681  landlord.transfer(_total_fee) */\n      0x08fc\n        /* \"contracts/House.sol\":3670:3680  _total_fee */\n      dup3\n        /* \"contracts/House.sol\":3652:3681  landlord.transfer(_total_fee) */\n      swap1\n      dup2\n      iszero\n      mul\n      swap1\n      mload(0x40)\n      0x00\n      mload(0x40)\n      dup1\n      dup4\n      sub\n      dup2\n      dup6\n      dup9\n      dup9\n      call\n      swap4\n      pop\n      pop\n      pop\n      pop\n      iszero\n      dup1\n      iszero\n      tag_111\n      jumpi\n      returndatasize\n      0x00\n      dup1\n      returndatacopy\n      revert(0x00, returndatasize)\n    tag_111:\n      pop\n        /* \"contracts/House.sol\":3730:3735  false */\n      0x00\n        /* \"contracts/House.sol\":3691:3706  Rooms_by_Number */\n      0x02\n        /* \"contracts/House.sol\":3691:3720  Rooms_by_Number[_room_number] */\n      0x00\n        /* \"contracts/House.sol\":3707:3719  _room_number */\n      dup9\n        /* \"contracts/House.sol\":3691:3720  Rooms_by_Number[_room_number] */\n      dup2\n      mstore\n      0x20\n      add\n      swap1\n      dup2\n      mstore\n      0x20\n      add\n      0x00\n      keccak256\n        /* \"contracts/House.sol\":3691:3727  Rooms_by_Number[_room_number].vacant */\n      0x03\n      add\n      0x00\n        /* \"contracts/House.sol\":3691:3735  Rooms_by_Number[_room_number].vacant = false */\n      0x0100\n      exp\n      dup2\n      sload\n      dup2\n      0xff\n      mul\n      not\n      and\n      swap1\n      dup4\n      iszero\n      iszero\n      mul\n      or\n      swap1\n      sstore\n      pop\n        /* \"contracts/House.sol\":3782:4081  Agreement(... */\n      mload(0x40)\n      dup1\n      0xa0\n      add\n      0x40\n      mstore\n      dup1\n        /* \"contracts/House.sol\":3805:3817  _room_number */\n      dup8\n        /* \"contracts/House.sol\":3782:4081  Agreement(... */\n      dup2\n      mstore\n      0x20\n      add\n        /* \"contracts/House.sol\":3858:3867  _duration */\n      dup7\n        /* \"contracts/House.sol\":3782:4081  Agreement(... */\n      dup2\n      mstore\n      0x20\n      add\n        /* \"contracts/House.sol\":3914:3915  1 */\n      0x01\n        /* \"contracts/House.sol\":3782:4081  Agreement(... */\n      dup2\n      mstore\n      0x20\n      add\n        /* \"contracts/House.sol\":3974:3989  block.timestamp */\n      timestamp\n        /* \"contracts/House.sol\":3782:4081  Agreement(... */\n      dup2\n      mstore\n      0x20\n      add\n        /* \"contracts/House.sol\":4033:4043  msg.sender */\n      caller\n        /* \"contracts/House.sol\":3782:4081  Agreement(... */\n      0xffffffffffffffffffffffffffffffffffffffff\n      and\n      dup2\n      mstore\n      pop\n        /* \"contracts/House.sol\":3745:3765  Agreements_by_Number */\n      0x03\n        /* \"contracts/House.sol\":3745:3779  Agreements_by_Number[_room_number] */\n      0x00\n        /* \"contracts/House.sol\":3766:3778  _room_number */\n      dup9\n        /* \"contracts/House.sol\":3745:3779  Agreements_by_Number[_room_number] */\n      dup2\n      mstore\n      0x20\n      add\n      swap1\n      dup2\n      mstore\n      0x20\n      add\n      0x00\n      keccak256\n        /* \"contracts/House.sol\":3745:4081  Agreements_by_Number[_room_number] = Agreement(... */\n      0x00\n      dup3\n      add\n      mload\n      dup2\n      0x00\n      add\n      sstore\n      0x20\n      dup3\n      add\n      mload\n      dup2\n      0x01\n      add\n      sstore\n      0x40\n      dup3\n      add\n      mload\n      dup2\n      0x02\n      add\n      sstore\n      0x60\n      dup3\n      add\n      mload\n      dup2\n      0x03\n      add\n      sstore\n      0x80\n      dup3\n      add\n      mload\n      dup2\n      0x04\n      add\n      exp(0x0100, 0x00)\n      dup2\n      sload\n      dup2\n      0xffffffffffffffffffffffffffffffffffffffff\n      mul\n      not\n      and\n      swap1\n      dup4\n      0xffffffffffffffffffffffffffffffffffffffff\n      and\n      mul\n      or\n      swap1\n      sstore\n      pop\n      swap1\n      pop\n      pop\n        /* \"contracts/House.sol\":4129:4298  Payment(... */\n      mload(0x40)\n      dup1\n      0x60\n      add\n      0x40\n      mstore\n      dup1\n        /* \"contracts/House.sol\":4150:4162  _room_number */\n      dup8\n        /* \"contracts/House.sol\":4129:4298  Payment(... */\n      dup2\n      mstore\n      0x20\n      add\n        /* \"contracts/House.sol\":4202:4212  _total_fee */\n      dup3\n        /* \"contracts/House.sol\":4129:4298  Payment(... */\n      dup2\n      mstore\n      0x20\n      add\n        /* \"contracts/House.sol\":4250:4265  block.timestamp */\n      timestamp\n        /* \"contracts/House.sol\":4129:4298  Payment(... */\n      dup2\n      mstore\n      pop\n        /* \"contracts/House.sol\":4091:4109  Payments_by_Number */\n      0x04\n        /* \"contracts/House.sol\":4091:4123  Payments_by_Number[_room_number] */\n      0x00\n        /* \"contracts/House.sol\":4110:4122  _room_number */\n      dup9\n        /* \"contracts/House.sol\":4091:4123  Payments_by_Number[_room_number] */\n      dup2\n      mstore\n      0x20\n      add\n      swap1\n      dup2\n      mstore\n      0x20\n      add\n      0x00\n      keccak256\n        /* \"contracts/House.sol\":4124:4125  0 */\n      0x00\n        /* \"contracts/House.sol\":4091:4126  Payments_by_Number[_room_number][0] */\n      dup2\n      sload\n      dup2\n      lt\n      tag_112\n      jumpi\n      tag_113\n      tag_92\n      jump\t// in\n    tag_113:\n    tag_112:\n      swap1\n      0x00\n      mstore\n      keccak256(0x00, 0x20)\n      swap1\n      0x03\n      mul\n      add\n        /* \"contracts/House.sol\":4091:4298  Payments_by_Number[_room_number][0] = Payment(... */\n      0x00\n      dup3\n      add\n      mload\n      dup2\n      0x00\n      add\n      sstore\n      0x20\n      dup3\n      add\n      mload\n      dup2\n      0x01\n      add\n      sstore\n      0x40\n      dup3\n      add\n      mload\n      dup2\n      0x02\n      add\n      sstore\n      swap1\n      pop\n      pop\n        /* \"contracts/House.sol\":3478:4305  {... */\n      pop\n        /* \"contracts/House.sol\":1470:1471  _ */\n      pop\n        /* \"contracts/House.sol\":1249:1478  {... */\n      pop\n        /* \"contracts/House.sol\":1099:1100  _ */\n      pop\n        /* \"contracts/House.sol\":3331:4305  function signAgreement(uint _room_number, uint _duration) public payable notLandlord() enoughAgreementFee(_room_number) onlyIfVacant(_room_number) {... */\n      pop\n      pop\n      jump\t// out\n        /* \"#utility.yul\":7:146   */\n    tag_116:\n        /* \"#utility.yul\":53:58   */\n      0x00\n        /* \"#utility.yul\":91:97   */\n      dup2\n        /* \"#utility.yul\":78:98   */\n      calldataload\n        /* \"#utility.yul\":69:98   */\n      swap1\n      pop\n        /* \"#utility.yul\":107:140   */\n      tag_118\n        /* \"#utility.yul\":134:139   */\n      dup2\n        /* \"#utility.yul\":107:140   */\n      tag_119\n      jump\t// in\n    tag_118:\n        /* \"#utility.yul\":7:146   */\n      swap3\n      swap2\n      pop\n      pop\n      jump\t// out\n        /* \"#utility.yul\":152:481   */\n    tag_24:\n        /* \"#utility.yul\":211:217   */\n      0x00\n        /* \"#utility.yul\":260:262   */\n      0x20\n        /* \"#utility.yul\":248:257   */\n      dup3\n        /* \"#utility.yul\":239:246   */\n      dup5\n        /* \"#utility.yul\":235:258   */\n      sub\n        /* \"#utility.yul\":231:263   */\n      slt\n        /* \"#utility.yul\":228:347   */\n      iszero\n      tag_121\n      jumpi\n        /* \"#utility.yul\":266:345   */\n      tag_122\n      tag_123\n      jump\t// in\n    tag_122:\n        /* \"#utility.yul\":228:347   */\n    tag_121:\n        /* \"#utility.yul\":386:387   */\n      0x00\n        /* \"#utility.yul\":411:464   */\n      tag_124\n        /* \"#utility.yul\":456:463   */\n      dup5\n        /* \"#utility.yul\":447:453   */\n      dup3\n        /* \"#utility.yul\":436:445   */\n      dup6\n        /* \"#utility.yul\":432:454   */\n      add\n        /* \"#utility.yul\":411:464   */\n      tag_116\n      jump\t// in\n    tag_124:\n        /* \"#utility.yul\":401:464   */\n      swap2\n      pop\n        /* \"#utility.yul\":357:474   */\n      pop\n        /* \"#utility.yul\":152:481   */\n      swap3\n      swap2\n      pop\n      pop\n      jump\t// out\n        /* \"#utility.yul\":487:961   */\n    tag_18:\n        /* \"#utility.yul\":555:561   */\n      0x00\n        /* \"#utility.yul\":563:569   */\n      dup1\n        /* \"#utility.yul\":612:614   */\n      0x40\n        /* \"#utility.yul\":600:609   */\n      dup4\n        /* \"#utility.yul\":591:598   */\n      dup6\n        /* \"#utility.yul\":587:610   */\n      sub\n        /* \"#utility.yul\":583:615   */\n      slt\n        /* \"#utility.yul\":580:699   */\n      iszero\n      tag_126\n      jumpi\n        /* \"#utility.yul\":618:697   */\n      tag_127\n      tag_123\n      jump\t// in\n    tag_127:\n        /* \"#utility.yul\":580:699   */\n    tag_126:\n        /* \"#utility.yul\":738:739   */\n      0x00\n        /* \"#utility.yul\":763:816   */\n      tag_128\n        /* \"#utility.yul\":808:815   */\n      dup6\n        /* \"#utility.yul\":799:805   */\n      dup3\n        /* \"#utility.yul\":788:797   */\n      dup7\n        /* \"#utility.yul\":784:806   */\n      add\n        /* \"#utility.yul\":763:816   */\n      tag_116\n      jump\t// in\n    tag_128:\n        /* \"#utility.yul\":753:816   */\n      swap3\n      pop\n        /* \"#utility.yul\":709:826   */\n      pop\n        /* \"#utility.yul\":865:867   */\n      0x20\n        /* \"#utility.yul\":891:944   */\n      tag_129\n        /* \"#utility.yul\":936:943   */\n      dup6\n        /* \"#utility.yul\":927:933   */\n      dup3\n        /* \"#utility.yul\":916:925   */\n      dup7\n        /* \"#utility.yul\":912:934   */\n      add\n        /* \"#utility.yul\":891:944   */\n      tag_116\n      jump\t// in\n    tag_129:\n        /* \"#utility.yul\":881:944   */\n      swap2\n      pop\n        /* \"#utility.yul\":836:954   */\n      pop\n        /* \"#utility.yul\":487:961   */\n      swap3\n      pop\n      swap3\n      swap1\n      pop\n      jump\t// out\n        /* \"#utility.yul\":967:1586   */\n    tag_13:\n        /* \"#utility.yul\":1044:1050   */\n      0x00\n        /* \"#utility.yul\":1052:1058   */\n      dup1\n        /* \"#utility.yul\":1060:1066   */\n      0x00\n        /* \"#utility.yul\":1109:1111   */\n      0x60\n        /* \"#utility.yul\":1097:1106   */\n      dup5\n        /* \"#utility.yul\":1088:1095   */\n      dup7\n        /* \"#utility.yul\":1084:1107   */\n      sub\n        /* \"#utility.yul\":1080:1112   */\n      slt\n        /* \"#utility.yul\":1077:1196   */\n      iszero\n      tag_131\n      jumpi\n        /* \"#utility.yul\":1115:1194   */\n      tag_132\n      tag_123\n      jump\t// in\n    tag_132:\n        /* \"#utility.yul\":1077:1196   */\n    tag_131:\n        /* \"#utility.yul\":1235:1236   */\n      0x00\n        /* \"#utility.yul\":1260:1313   */\n      tag_133\n        /* \"#utility.yul\":1305:1312   */\n      dup7\n        /* \"#utility.yul\":1296:1302   */\n      dup3\n        /* \"#utility.yul\":1285:1294   */\n      dup8\n        /* \"#utility.yul\":1281:1303   */\n      add\n        /* \"#utility.yul\":1260:1313   */\n      tag_116\n      jump\t// in\n    tag_133:\n        /* \"#utility.yul\":1250:1313   */\n      swap4\n      pop\n        /* \"#utility.yul\":1206:1323   */\n      pop\n        /* \"#utility.yul\":1362:1364   */\n      0x20\n        /* \"#utility.yul\":1388:1441   */\n      tag_134\n        /* \"#utility.yul\":1433:1440   */\n      dup7\n        /* \"#utility.yul\":1424:1430   */\n      dup3\n        /* \"#utility.yul\":1413:1422   */\n      dup8\n        /* \"#utility.yul\":1409:1431   */\n      add\n        /* \"#utility.yul\":1388:1441   */\n      tag_116\n      jump\t// in\n    tag_134:\n        /* \"#utility.yul\":1378:1441   */\n      swap3\n      pop\n        /* \"#utility.yul\":1333:1451   */\n      pop\n        /* \"#utility.yul\":1490:1492   */\n      0x40\n        /* \"#utility.yul\":1516:1569   */\n      tag_135\n        /* \"#utility.yul\":1561:1568   */\n      dup7\n        /* \"#utility.yul\":1552:1558   */\n      dup3\n        /* \"#utility.yul\":1541:1550   */\n      dup8\n        /* \"#utility.yul\":1537:1559   */\n      add\n        /* \"#utility.yul\":1516:1569   */\n      tag_116\n      jump\t// in\n    tag_135:\n        /* \"#utility.yul\":1506:1569   */\n      swap2\n      pop\n        /* \"#utility.yul\":1461:1579   */\n      pop\n        /* \"#utility.yul\":967:1586   */\n      swap3\n      pop\n      swap3\n      pop\n      swap3\n      jump\t// out\n        /* \"#utility.yul\":1592:1734   */\n    tag_136:\n        /* \"#utility.yul\":1695:1727   */\n      tag_138\n        /* \"#utility.yul\":1721:1726   */\n      dup2\n        /* \"#utility.yul\":1695:1727   */\n      tag_139\n      jump\t// in\n    tag_138:\n        /* \"#utility.yul\":1690:1693   */\n      dup3\n        /* \"#utility.yul\":1683:1728   */\n      mstore\n        /* \"#utility.yul\":1592:1734   */\n      pop\n      pop\n      jump\t// out\n        /* \"#utility.yul\":1740:1849   */\n    tag_140:\n        /* \"#utility.yul\":1821:1842   */\n      tag_142\n        /* \"#utility.yul\":1836:1841   */\n      dup2\n        /* \"#utility.yul\":1821:1842   */\n      tag_143\n      jump\t// in\n    tag_142:\n        /* \"#utility.yul\":1816:1819   */\n      dup3\n        /* \"#utility.yul\":1809:1843   */\n      mstore\n        /* \"#utility.yul\":1740:1849   */\n      pop\n      pop\n      jump\t// out\n        /* \"#utility.yul\":1855:2221   */\n    tag_144:\n        /* \"#utility.yul\":1997:2000   */\n      0x00\n        /* \"#utility.yul\":2018:2085   */\n      tag_146\n        /* \"#utility.yul\":2082:2084   */\n      0x1f\n        /* \"#utility.yul\":2077:2080   */\n      dup4\n        /* \"#utility.yul\":2018:2085   */\n      tag_147\n      jump\t// in\n    tag_146:\n        /* \"#utility.yul\":2011:2085   */\n      swap2\n      pop\n        /* \"#utility.yul\":2094:2187   */\n      tag_148\n        /* \"#utility.yul\":2183:2186   */\n      dup3\n        /* \"#utility.yul\":2094:2187   */\n      tag_149\n      jump\t// in\n    tag_148:\n        /* \"#utility.yul\":2212:2214   */\n      0x20\n        /* \"#utility.yul\":2207:2210   */\n      dup3\n        /* \"#utility.yul\":2203:2215   */\n      add\n        /* \"#utility.yul\":2196:2215   */\n      swap1\n      pop\n        /* \"#utility.yul\":1855:2221   */\n      swap2\n      swap1\n      pop\n      jump\t// out\n        /* \"#utility.yul\":2227:2593   */\n    tag_150:\n        /* \"#utility.yul\":2369:2372   */\n      0x00\n        /* \"#utility.yul\":2390:2457   */\n      tag_152\n        /* \"#utility.yul\":2454:2456   */\n      0x1c\n        /* \"#utility.yul\":2449:2452   */\n      dup4\n        /* \"#utility.yul\":2390:2457   */\n      tag_147\n      jump\t// in\n    tag_152:\n        /* \"#utility.yul\":2383:2457   */\n      swap2\n      pop\n        /* \"#utility.yul\":2466:2559   */\n      tag_153\n        /* \"#utility.yul\":2555:2558   */\n      dup3\n        /* \"#utility.yul\":2466:2559   */\n      tag_154\n      jump\t// in\n    tag_153:\n        /* \"#utility.yul\":2584:2586   */\n      0x20\n        /* \"#utility.yul\":2579:2582   */\n      dup3\n        /* \"#utility.yul\":2575:2587   */\n      add\n        /* \"#utility.yul\":2568:2587   */\n      swap1\n      pop\n        /* \"#utility.yul\":2227:2593   */\n      swap2\n      swap1\n      pop\n      jump\t// out\n        /* \"#utility.yul\":2599:2965   */\n    tag_155:\n        /* \"#utility.yul\":2741:2744   */\n      0x00\n        /* \"#utility.yul\":2762:2829   */\n      tag_157\n        /* \"#utility.yul\":2826:2828   */\n      0x18\n        /* \"#utility.yul\":2821:2824   */\n      dup4\n        /* \"#utility.yul\":2762:2829   */\n      tag_147\n      jump\t// in\n    tag_157:\n        /* \"#utility.yul\":2755:2829   */\n      swap2\n      pop\n        /* \"#utility.yul\":2838:2931   */\n      tag_158\n        /* \"#utility.yul\":2927:2930   */\n      dup3\n        /* \"#utility.yul\":2838:2931   */\n      tag_159\n      jump\t// in\n    tag_158:\n        /* \"#utility.yul\":2956:2958   */\n      0x20\n        /* \"#utility.yul\":2951:2954   */\n      dup3\n        /* \"#utility.yul\":2947:2959   */\n      add\n        /* \"#utility.yul\":2940:2959   */\n      swap1\n      pop\n        /* \"#utility.yul\":2599:2965   */\n      swap2\n      swap1\n      pop\n      jump\t// out\n        /* \"#utility.yul\":2971:3337   */\n    tag_160:\n        /* \"#utility.yul\":3113:3116   */\n      0x00\n        /* \"#utility.yul\":3134:3201   */\n      tag_162\n        /* \"#utility.yul\":3198:3200   */\n      0x16\n        /* \"#utility.yul\":3193:3196   */\n      dup4\n        /* \"#utility.yul\":3134:3201   */\n      tag_147\n      jump\t// in\n    tag_162:\n        /* \"#utility.yul\":3127:3201   */\n      swap2\n      pop\n        /* \"#utility.yul\":3210:3303   */\n      tag_163\n        /* \"#utility.yul\":3299:3302   */\n      dup3\n        /* \"#utility.yul\":3210:3303   */\n      tag_164\n      jump\t// in\n    tag_163:\n        /* \"#utility.yul\":3328:3330   */\n      0x20\n        /* \"#utility.yul\":3323:3326   */\n      dup3\n        /* \"#utility.yul\":3319:3331   */\n      add\n        /* \"#utility.yul\":3312:3331   */\n      swap1\n      pop\n        /* \"#utility.yul\":2971:3337   */\n      swap2\n      swap1\n      pop\n      jump\t// out\n        /* \"#utility.yul\":3343:3709   */\n    tag_165:\n        /* \"#utility.yul\":3485:3488   */\n      0x00\n        /* \"#utility.yul\":3506:3573   */\n      tag_167\n        /* \"#utility.yul\":3570:3572   */\n      0x23\n        /* \"#utility.yul\":3565:3568   */\n      dup4\n        /* \"#utility.yul\":3506:3573   */\n      tag_147\n      jump\t// in\n    tag_167:\n        /* \"#utility.yul\":3499:3573   */\n      swap2\n      pop\n        /* \"#utility.yul\":3582:3675   */\n      tag_168\n        /* \"#utility.yul\":3671:3674   */\n      dup3\n        /* \"#utility.yul\":3582:3675   */\n      tag_169\n      jump\t// in\n    tag_168:\n        /* \"#utility.yul\":3700:3702   */\n      0x40\n        /* \"#utility.yul\":3695:3698   */\n      dup3\n        /* \"#utility.yul\":3691:3703   */\n      add\n        /* \"#utility.yul\":3684:3703   */\n      swap1\n      pop\n        /* \"#utility.yul\":3343:3709   */\n      swap2\n      swap1\n      pop\n      jump\t// out\n        /* \"#utility.yul\":3715:4081   */\n    tag_170:\n        /* \"#utility.yul\":3857:3860   */\n      0x00\n        /* \"#utility.yul\":3878:3945   */\n      tag_172\n        /* \"#utility.yul\":3942:3944   */\n      0x25\n        /* \"#utility.yul\":3937:3940   */\n      dup4\n        /* \"#utility.yul\":3878:3945   */\n      tag_147\n      jump\t// in\n    tag_172:\n        /* \"#utility.yul\":3871:3945   */\n      swap2\n      pop\n        /* \"#utility.yul\":3954:4047   */\n      tag_173\n        /* \"#utility.yul\":4043:4046   */\n      dup3\n        /* \"#utility.yul\":3954:4047   */\n      tag_174\n      jump\t// in\n    tag_173:\n        /* \"#utility.yul\":4072:4074   */\n      0x40\n        /* \"#utility.yul\":4067:4070   */\n      dup3\n        /* \"#utility.yul\":4063:4075   */\n      add\n        /* \"#utility.yul\":4056:4075   */\n      swap1\n      pop\n        /* \"#utility.yul\":3715:4081   */\n      swap2\n      swap1\n      pop\n      jump\t// out\n        /* \"#utility.yul\":4087:4453   */\n    tag_175:\n        /* \"#utility.yul\":4229:4232   */\n      0x00\n        /* \"#utility.yul\":4250:4317   */\n      tag_177\n        /* \"#utility.yul\":4314:4316   */\n      0x16\n        /* \"#utility.yul\":4309:4312   */\n      dup4\n        /* \"#utility.yul\":4250:4317   */\n      tag_147\n      jump\t// in\n    tag_177:\n        /* \"#utility.yul\":4243:4317   */\n      swap2\n      pop\n        /* \"#utility.yul\":4326:4419   */\n      tag_178\n        /* \"#utility.yul\":4415:4418   */\n      dup3\n        /* \"#utility.yul\":4326:4419   */\n      tag_179\n      jump\t// in\n    tag_178:\n        /* \"#utility.yul\":4444:4446   */\n      0x20\n        /* \"#utility.yul\":4439:4442   */\n      dup3\n        /* \"#utility.yul\":4435:4447   */\n      add\n        /* \"#utility.yul\":4428:4447   */\n      swap1\n      pop\n        /* \"#utility.yul\":4087:4453   */\n      swap2\n      swap1\n      pop\n      jump\t// out\n        /* \"#utility.yul\":4459:4825   */\n    tag_180:\n        /* \"#utility.yul\":4601:4604   */\n      0x00\n        /* \"#utility.yul\":4622:4689   */\n      tag_182\n        /* \"#utility.yul\":4686:4688   */\n      0x34\n        /* \"#utility.yul\":4681:4684   */\n      dup4\n        /* \"#utility.yul\":4622:4689   */\n      tag_147\n      jump\t// in\n    tag_182:\n        /* \"#utility.yul\":4615:4689   */\n      swap2\n      pop\n        /* \"#utility.yul\":4698:4791   */\n      tag_183\n        /* \"#utility.yul\":4787:4790   */\n      dup3\n        /* \"#utility.yul\":4698:4791   */\n      tag_184\n      jump\t// in\n    tag_183:\n        /* \"#utility.yul\":4816:4818   */\n      0x40\n        /* \"#utility.yul\":4811:4814   */\n      dup3\n        /* \"#utility.yul\":4807:4819   */\n      add\n        /* \"#utility.yul\":4800:4819   */\n      swap1\n      pop\n        /* \"#utility.yul\":4459:4825   */\n      swap2\n      swap1\n      pop\n      jump\t// out\n        /* \"#utility.yul\":4831:4949   */\n    tag_185:\n        /* \"#utility.yul\":4918:4942   */\n      tag_187\n        /* \"#utility.yul\":4936:4941   */\n      dup2\n        /* \"#utility.yul\":4918:4942   */\n      tag_188\n      jump\t// in\n    tag_187:\n        /* \"#utility.yul\":4913:4916   */\n      dup3\n        /* \"#utility.yul\":4906:4943   */\n      mstore\n        /* \"#utility.yul\":4831:4949   */\n      pop\n      pop\n      jump\t// out\n        /* \"#utility.yul\":4955:5374   */\n    tag_47:\n        /* \"#utility.yul\":5121:5125   */\n      0x00\n        /* \"#utility.yul\":5159:5161   */\n      0x20\n        /* \"#utility.yul\":5148:5157   */\n      dup3\n        /* \"#utility.yul\":5144:5162   */\n      add\n        /* \"#utility.yul\":5136:5162   */\n      swap1\n      pop\n        /* \"#utility.yul\":5208:5217   */\n      dup2\n        /* \"#utility.yul\":5202:5206   */\n      dup2\n        /* \"#utility.yul\":5198:5218   */\n      sub\n        /* \"#utility.yul\":5194:5195   */\n      0x00\n        /* \"#utility.yul\":5183:5192   */\n      dup4\n        /* \"#utility.yul\":5179:5196   */\n      add\n        /* \"#utility.yul\":5172:5219   */\n      mstore\n        /* \"#utility.yul\":5236:5367   */\n      tag_190\n        /* \"#utility.yul\":5362:5366   */\n      dup2\n        /* \"#utility.yul\":5236:5367   */\n      tag_144\n      jump\t// in\n    tag_190:\n        /* \"#utility.yul\":5228:5367   */\n      swap1\n      pop\n        /* \"#utility.yul\":4955:5374   */\n      swap2\n      swap1\n      pop\n      jump\t// out\n        /* \"#utility.yul\":5380:5799   */\n    tag_75:\n        /* \"#utility.yul\":5546:5550   */\n      0x00\n        /* \"#utility.yul\":5584:5586   */\n      0x20\n        /* \"#utility.yul\":5573:5582   */\n      dup3\n        /* \"#utility.yul\":5569:5587   */\n      add\n        /* \"#utility.yul\":5561:5587   */\n      swap1\n      pop\n        /* \"#utility.yul\":5633:5642   */\n      dup2\n        /* \"#utility.yul\":5627:5631   */\n      dup2\n        /* \"#utility.yul\":5623:5643   */\n      sub\n        /* \"#utility.yul\":5619:5620   */\n      0x00\n        /* \"#utility.yul\":5608:5617   */\n      dup4\n        /* \"#utility.yul\":5604:5621   */\n      add\n        /* \"#utility.yul\":5597:5644   */\n      mstore\n        /* \"#utility.yul\":5661:5792   */\n      tag_192\n        /* \"#utility.yul\":5787:5791   */\n      dup2\n        /* \"#utility.yul\":5661:5792   */\n      tag_150\n      jump\t// in\n    tag_192:\n        /* \"#utility.yul\":5653:5792   */\n      swap1\n      pop\n        /* \"#utility.yul\":5380:5799   */\n      swap2\n      swap1\n      pop\n      jump\t// out\n        /* \"#utility.yul\":5805:6224   */\n    tag_106:\n        /* \"#utility.yul\":5971:5975   */\n      0x00\n        /* \"#utility.yul\":6009:6011   */\n      0x20\n        /* \"#utility.yul\":5998:6007   */\n      dup3\n        /* \"#utility.yul\":5994:6012   */\n      add\n        /* \"#utility.yul\":5986:6012   */\n      swap1\n      pop\n        /* \"#utility.yul\":6058:6067   */\n      dup2\n        /* \"#utility.yul\":6052:6056   */\n      dup2\n        /* \"#utility.yul\":6048:6068   */\n      sub\n        /* \"#utility.yul\":6044:6045   */\n      0x00\n        /* \"#utility.yul\":6033:6042   */\n      dup4\n        /* \"#utility.yul\":6029:6046   */\n      add\n        /* \"#utility.yul\":6022:6069   */\n      mstore\n        /* \"#utility.yul\":6086:6217   */\n      tag_194\n        /* \"#utility.yul\":6212:6216   */\n      dup2\n        /* \"#utility.yul\":6086:6217   */\n      tag_155\n      jump\t// in\n    tag_194:\n        /* \"#utility.yul\":6078:6217   */\n      swap1\n      pop\n        /* \"#utility.yul\":5805:6224   */\n      swap2\n      swap1\n      pop\n      jump\t// out\n        /* \"#utility.yul\":6230:6649   */\n    tag_81:\n        /* \"#utility.yul\":6396:6400   */\n      0x00\n        /* \"#utility.yul\":6434:6436   */\n      0x20\n        /* \"#utility.yul\":6423:6432   */\n      dup3\n        /* \"#utility.yul\":6419:6437   */\n      add\n        /* \"#utility.yul\":6411:6437   */\n      swap1\n      pop\n        /* \"#utility.yul\":6483:6492   */\n      dup2\n        /* \"#utility.yul\":6477:6481   */\n      dup2\n        /* \"#utility.yul\":6473:6493   */\n      sub\n        /* \"#utility.yul\":6469:6470   */\n      0x00\n        /* \"#utility.yul\":6458:6467   */\n      dup4\n        /* \"#utility.yul\":6454:6471   */\n      add\n        /* \"#utility.yul\":6447:6494   */\n      mstore\n        /* \"#utility.yul\":6511:6642   */\n      tag_196\n        /* \"#utility.yul\":6637:6641   */\n      dup2\n        /* \"#utility.yul\":6511:6642   */\n      tag_160\n      jump\t// in\n    tag_196:\n        /* \"#utility.yul\":6503:6642   */\n      swap1\n      pop\n        /* \"#utility.yul\":6230:6649   */\n      swap2\n      swap1\n      pop\n      jump\t// out\n        /* \"#utility.yul\":6655:7074   */\n    tag_85:\n        /* \"#utility.yul\":6821:6825   */\n      0x00\n        /* \"#utility.yul\":6859:6861   */\n      0x20\n        /* \"#utility.yul\":6848:6857   */\n      dup3\n        /* \"#utility.yul\":6844:6862   */\n      add\n        /* \"#utility.yul\":6836:6862   */\n      swap1\n      pop\n        /* \"#utility.yul\":6908:6917   */\n      dup2\n        /* \"#utility.yul\":6902:6906   */\n      dup2\n        /* \"#utility.yul\":6898:6918   */\n      sub\n        /* \"#utility.yul\":6894:6895   */\n      0x00\n        /* \"#utility.yul\":6883:6892   */\n      dup4\n        /* \"#utility.yul\":6879:6896   */\n      add\n        /* \"#utility.yul\":6872:6919   */\n      mstore\n        /* \"#utility.yul\":6936:7067   */\n      tag_198\n        /* \"#utility.yul\":7062:7066   */\n      dup2\n        /* \"#utility.yul\":6936:7067   */\n      tag_165\n      jump\t// in\n    tag_198:\n        /* \"#utility.yul\":6928:7067   */\n      swap1\n      pop\n        /* \"#utility.yul\":6655:7074   */\n      swap2\n      swap1\n      pop\n      jump\t// out\n        /* \"#utility.yul\":7080:7499   */\n    tag_64:\n        /* \"#utility.yul\":7246:7250   */\n      0x00\n        /* \"#utility.yul\":7284:7286   */\n      0x20\n        /* \"#utility.yul\":7273:7282   */\n      dup3\n        /* \"#utility.yul\":7269:7287   */\n      add\n        /* \"#utility.yul\":7261:7287   */\n      swap1\n      pop\n        /* \"#utility.yul\":7333:7342   */\n      dup2\n        /* \"#utility.yul\":7327:7331   */\n      dup2\n        /* \"#utility.yul\":7323:7343   */\n      sub\n        /* \"#utility.yul\":7319:7320   */\n      0x00\n        /* \"#utility.yul\":7308:7317   */\n      dup4\n        /* \"#utility.yul\":7304:7321   */\n      add\n        /* \"#utility.yul\":7297:7344   */\n      mstore\n        /* \"#utility.yul\":7361:7492   */\n      tag_200\n        /* \"#utility.yul\":7487:7491   */\n      dup2\n        /* \"#utility.yul\":7361:7492   */\n      tag_170\n      jump\t// in\n    tag_200:\n        /* \"#utility.yul\":7353:7492   */\n      swap1\n      pop\n        /* \"#utility.yul\":7080:7499   */\n      swap2\n      swap1\n      pop\n      jump\t// out\n        /* \"#utility.yul\":7505:7924   */\n    tag_69:\n        /* \"#utility.yul\":7671:7675   */\n      0x00\n        /* \"#utility.yul\":7709:7711   */\n      0x20\n        /* \"#utility.yul\":7698:7707   */\n      dup3\n        /* \"#utility.yul\":7694:7712   */\n      add\n        /* \"#utility.yul\":7686:7712   */\n      swap1\n      pop\n        /* \"#utility.yul\":7758:7767   */\n      dup2\n        /* \"#utility.yul\":7752:7756   */\n      dup2\n        /* \"#utility.yul\":7748:7768   */\n      sub\n        /* \"#utility.yul\":7744:7745   */\n      0x00\n        /* \"#utility.yul\":7733:7742   */\n      dup4\n        /* \"#utility.yul\":7729:7746   */\n      add\n        /* \"#utility.yul\":7722:7769   */\n      mstore\n        /* \"#utility.yul\":7786:7917   */\n      tag_202\n        /* \"#utility.yul\":7912:7916   */\n      dup2\n        /* \"#utility.yul\":7786:7917   */\n      tag_175\n      jump\t// in\n    tag_202:\n        /* \"#utility.yul\":7778:7917   */\n      swap1\n      pop\n        /* \"#utility.yul\":7505:7924   */\n      swap2\n      swap1\n      pop\n      jump\t// out\n        /* \"#utility.yul\":7930:8349   */\n    tag_102:\n        /* \"#utility.yul\":8096:8100   */\n      0x00\n        /* \"#utility.yul\":8134:8136   */\n      0x20\n        /* \"#utility.yul\":8123:8132   */\n      dup3\n        /* \"#utility.yul\":8119:8137   */\n      add\n        /* \"#utility.yul\":8111:8137   */\n      swap1\n      pop\n        /* \"#utility.yul\":8183:8192   */\n      dup2\n        /* \"#utility.yul\":8177:8181   */\n      dup2\n        /* \"#utility.yul\":8173:8193   */\n      sub\n        /* \"#utility.yul\":8169:8170   */\n      0x00\n        /* \"#utility.yul\":8158:8167   */\n      dup4\n        /* \"#utility.yul\":8154:8171   */\n      add\n        /* \"#utility.yul\":8147:8194   */\n      mstore\n        /* \"#utility.yul\":8211:8342   */\n      tag_204\n        /* \"#utility.yul\":8337:8341   */\n      dup2\n        /* \"#utility.yul\":8211:8342   */\n      tag_180\n      jump\t// in\n    tag_204:\n        /* \"#utility.yul\":8203:8342   */\n      swap1\n      pop\n        /* \"#utility.yul\":7930:8349   */\n      swap2\n      swap1\n      pop\n      jump\t// out\n        /* \"#utility.yul\":8355:8797   */\n    tag_21:\n        /* \"#utility.yul\":8504:8508   */\n      0x00\n        /* \"#utility.yul\":8542:8544   */\n      0x60\n        /* \"#utility.yul\":8531:8540   */\n      dup3\n        /* \"#utility.yul\":8527:8545   */\n      add\n        /* \"#utility.yul\":8519:8545   */\n      swap1\n      pop\n        /* \"#utility.yul\":8555:8626   */\n      tag_206\n        /* \"#utility.yul\":8623:8624   */\n      0x00\n        /* \"#utility.yul\":8612:8621   */\n      dup4\n        /* \"#utility.yul\":8608:8625   */\n      add\n        /* \"#utility.yul\":8599:8605   */\n      dup7\n        /* \"#utility.yul\":8555:8626   */\n      tag_185\n      jump\t// in\n    tag_206:\n        /* \"#utility.yul\":8636:8708   */\n      tag_207\n        /* \"#utility.yul\":8704:8706   */\n      0x20\n        /* \"#utility.yul\":8693:8702   */\n      dup4\n        /* \"#utility.yul\":8689:8707   */\n      add\n        /* \"#utility.yul\":8680:8686   */\n      dup6\n        /* \"#utility.yul\":8636:8708   */\n      tag_185\n      jump\t// in\n    tag_207:\n        /* \"#utility.yul\":8718:8790   */\n      tag_208\n        /* \"#utility.yul\":8786:8788   */\n      0x40\n        /* \"#utility.yul\":8775:8784   */\n      dup4\n        /* \"#utility.yul\":8771:8789   */\n      add\n        /* \"#utility.yul\":8762:8768   */\n      dup5\n        /* \"#utility.yul\":8718:8790   */\n      tag_185\n      jump\t// in\n    tag_208:\n        /* \"#utility.yul\":8355:8797   */\n      swap5\n      swap4\n      pop\n      pop\n      pop\n      pop\n      jump\t// out\n        /* \"#utility.yul\":8803:9344   */\n    tag_31:\n        /* \"#utility.yul\":8974:8978   */\n      0x00\n        /* \"#utility.yul\":9012:9015   */\n      0x80\n        /* \"#utility.yul\":9001:9010   */\n      dup3\n        /* \"#utility.yul\":8997:9016   */\n      add\n        /* \"#utility.yul\":8989:9016   */\n      swap1\n      pop\n        /* \"#utility.yul\":9026:9097   */\n      tag_210\n        /* \"#utility.yul\":9094:9095   */\n      0x00\n        /* \"#utility.yul\":9083:9092   */\n      dup4\n        /* \"#utility.yul\":9079:9096   */\n      add\n        /* \"#utility.yul\":9070:9076   */\n      dup8\n        /* \"#utility.yul\":9026:9097   */\n      tag_185\n      jump\t// in\n    tag_210:\n        /* \"#utility.yul\":9107:9179   */\n      tag_211\n        /* \"#utility.yul\":9175:9177   */\n      0x20\n        /* \"#utility.yul\":9164:9173   */\n      dup4\n        /* \"#utility.yul\":9160:9178   */\n      add\n        /* \"#utility.yul\":9151:9157   */\n      dup7\n        /* \"#utility.yul\":9107:9179   */\n      tag_185\n      jump\t// in\n    tag_211:\n        /* \"#utility.yul\":9189:9261   */\n      tag_212\n        /* \"#utility.yul\":9257:9259   */\n      0x40\n        /* \"#utility.yul\":9246:9255   */\n      dup4\n        /* \"#utility.yul\":9242:9260   */\n      add\n        /* \"#utility.yul\":9233:9239   */\n      dup6\n        /* \"#utility.yul\":9189:9261   */\n      tag_185\n      jump\t// in\n    tag_212:\n        /* \"#utility.yul\":9271:9337   */\n      tag_213\n        /* \"#utility.yul\":9333:9335   */\n      0x60\n        /* \"#utility.yul\":9322:9331   */\n      dup4\n        /* \"#utility.yul\":9318:9336   */\n      add\n        /* \"#utility.yul\":9309:9315   */\n      dup5\n        /* \"#utility.yul\":9271:9337   */\n      tag_140\n      jump\t// in\n    tag_213:\n        /* \"#utility.yul\":8803:9344   */\n      swap6\n      swap5\n      pop\n      pop\n      pop\n      pop\n      pop\n      jump\t// out\n        /* \"#utility.yul\":9350:10046   */\n    tag_37:\n        /* \"#utility.yul\":9571:9575   */\n      0x00\n        /* \"#utility.yul\":9609:9612   */\n      0xa0\n        /* \"#utility.yul\":9598:9607   */\n      dup3\n        /* \"#utility.yul\":9594:9613   */\n      add\n        /* \"#utility.yul\":9586:9613   */\n      swap1\n      pop\n        /* \"#utility.yul\":9623:9694   */\n      tag_215\n        /* \"#utility.yul\":9691:9692   */\n      0x00\n        /* \"#utility.yul\":9680:9689   */\n      dup4\n        /* \"#utility.yul\":9676:9693   */\n      add\n        /* \"#utility.yul\":9667:9673   */\n      dup9\n        /* \"#utility.yul\":9623:9694   */\n      tag_185\n      jump\t// in\n    tag_215:\n        /* \"#utility.yul\":9704:9776   */\n      tag_216\n        /* \"#utility.yul\":9772:9774   */\n      0x20\n        /* \"#utility.yul\":9761:9770   */\n      dup4\n        /* \"#utility.yul\":9757:9775   */\n      add\n        /* \"#utility.yul\":9748:9754   */\n      dup8\n        /* \"#utility.yul\":9704:9776   */\n      tag_185\n      jump\t// in\n    tag_216:\n        /* \"#utility.yul\":9786:9858   */\n      tag_217\n        /* \"#utility.yul\":9854:9856   */\n      0x40\n        /* \"#utility.yul\":9843:9852   */\n      dup4\n        /* \"#utility.yul\":9839:9857   */\n      add\n        /* \"#utility.yul\":9830:9836   */\n      dup7\n        /* \"#utility.yul\":9786:9858   */\n      tag_185\n      jump\t// in\n    tag_217:\n        /* \"#utility.yul\":9868:9940   */\n      tag_218\n        /* \"#utility.yul\":9936:9938   */\n      0x60\n        /* \"#utility.yul\":9925:9934   */\n      dup4\n        /* \"#utility.yul\":9921:9939   */\n      add\n        /* \"#utility.yul\":9912:9918   */\n      dup6\n        /* \"#utility.yul\":9868:9940   */\n      tag_185\n      jump\t// in\n    tag_218:\n        /* \"#utility.yul\":9950:10039   */\n      tag_219\n        /* \"#utility.yul\":10034:10037   */\n      0x80\n        /* \"#utility.yul\":10023:10032   */\n      dup4\n        /* \"#utility.yul\":10019:10038   */\n      add\n        /* \"#utility.yul\":10010:10016   */\n      dup5\n        /* \"#utility.yul\":9950:10039   */\n      tag_136\n      jump\t// in\n    tag_219:\n        /* \"#utility.yul\":9350:10046   */\n      swap7\n      swap6\n      pop\n      pop\n      pop\n      pop\n      pop\n      pop\n      jump\t// out\n        /* \"#utility.yul\":10133:10302   */\n    tag_147:\n        /* \"#utility.yul\":10217:10228   */\n      0x00\n        /* \"#utility.yul\":10251:10257   */\n      dup3\n        /* \"#utility.yul\":10246:10249   */\n      dup3\n        /* \"#utility.yul\":10239:10258   */\n      mstore\n        /* \"#utility.yul\":10291:10295   */\n      0x20\n        /* \"#utility.yul\":10286:10289   */\n      dup3\n        /* \"#utility.yul\":10282:10296   */\n      add\n        /* \"#utility.yul\":10267:10296   */\n      swap1\n      pop\n        /* \"#utility.yul\":10133:10302   */\n      swap3\n      swap2\n      pop\n      pop\n      jump\t// out\n        /* \"#utility.yul\":10308:10613   */\n    tag_99:\n        /* \"#utility.yul\":10348:10351   */\n      0x00\n        /* \"#utility.yul\":10367:10387   */\n      tag_224\n        /* \"#utility.yul\":10385:10386   */\n      dup3\n        /* \"#utility.yul\":10367:10387   */\n      tag_188\n      jump\t// in\n    tag_224:\n        /* \"#utility.yul\":10362:10387   */\n      swap2\n      pop\n        /* \"#utility.yul\":10401:10421   */\n      tag_225\n        /* \"#utility.yul\":10419:10420   */\n      dup4\n        /* \"#utility.yul\":10401:10421   */\n      tag_188\n      jump\t// in\n    tag_225:\n        /* \"#utility.yul\":10396:10421   */\n      swap3\n      pop\n        /* \"#utility.yul\":10555:10556   */\n      dup3\n        /* \"#utility.yul\":10487:10553   */\n      0xffffffffffffffffffffffffffffffffffffffffffffffffffffffffffffffff\n        /* \"#utility.yul\":10483:10557   */\n      sub\n        /* \"#utility.yul\":10480:10481   */\n      dup3\n        /* \"#utility.yul\":10477:10558   */\n      gt\n        /* \"#utility.yul\":10474:10581   */\n      iszero\n      tag_226\n      jumpi\n        /* \"#utility.yul\":10561:10579   */\n      tag_227\n      tag_228\n      jump\t// in\n    tag_227:\n        /* \"#utility.yul\":10474:10581   */\n    tag_226:\n        /* \"#utility.yul\":10605:10606   */\n      dup3\n        /* \"#utility.yul\":10602:10603   */\n      dup3\n        /* \"#utility.yul\":10598:10607   */\n      add\n        /* \"#utility.yul\":10591:10607   */\n      swap1\n      pop\n        /* \"#utility.yul\":10308:10613   */\n      swap3\n      swap2\n      pop\n      pop\n      jump\t// out\n        /* \"#utility.yul\":10619:10810   */\n    tag_78:\n        /* \"#utility.yul\":10659:10663   */\n      0x00\n        /* \"#utility.yul\":10679:10699   */\n      tag_230\n        /* \"#utility.yul\":10697:10698   */\n      dup3\n        /* \"#utility.yul\":10679:10699   */\n      tag_188\n      jump\t// in\n    tag_230:\n        /* \"#utility.yul\":10674:10699   */\n      swap2\n      pop\n        /* \"#utility.yul\":10713:10733   */\n      tag_231\n        /* \"#utility.yul\":10731:10732   */\n      dup4\n        /* \"#utility.yul\":10713:10733   */\n      tag_188\n      jump\t// in\n    tag_231:\n        /* \"#utility.yul\":10708:10733   */\n      swap3\n      pop\n        /* \"#utility.yul\":10752:10753   */\n      dup3\n        /* \"#utility.yul\":10749:10750   */\n      dup3\n        /* \"#utility.yul\":10746:10754   */\n      lt\n        /* \"#utility.yul\":10743:10777   */\n      iszero\n      tag_232\n      jumpi\n        /* \"#utility.yul\":10757:10775   */\n      tag_233\n      tag_228\n      jump\t// in\n    tag_233:\n        /* \"#utility.yul\":10743:10777   */\n    tag_232:\n        /* \"#utility.yul\":10802:10803   */\n      dup3\n        /* \"#utility.yul\":10799:10800   */\n      dup3\n        /* \"#utility.yul\":10795:10804   */\n      sub\n        /* \"#utility.yul\":10787:10804   */\n      swap1\n      pop\n        /* \"#utility.yul\":10619:10810   */\n      swap3\n      swap2\n      pop\n      pop\n      jump\t// out\n        /* \"#utility.yul\":10816:10920   */\n    tag_139:\n        /* \"#utility.yul\":10861:10868   */\n      0x00\n        /* \"#utility.yul\":10890:10914   */\n      tag_235\n        /* \"#utility.yul\":10908:10913   */\n      dup3\n        /* \"#utility.yul\":10890:10914   */\n      tag_236\n      jump\t// in\n    tag_235:\n        /* \"#utility.yul\":10879:10914   */\n      swap1\n      pop\n        /* \"#utility.yul\":10816:10920   */\n      swap2\n      swap1\n      pop\n      jump\t// out\n        /* \"#utility.yul\":10926:11016   */\n    tag_143:\n        /* \"#utility.yul\":10960:10967   */\n      0x00\n        /* \"#utility.yul\":11003:11008   */\n      dup2\n        /* \"#utility.yul\":10996:11009   */\n      iszero\n        /* \"#utility.yul\":10989:11010   */\n      iszero\n        /* \"#utility.yul\":10978:11010   */\n      swap1\n      pop\n        /* \"#utility.yul\":10926:11016   */\n      swap2\n      swap1\n      pop\n      jump\t// out\n        /* \"#utility.yul\":11022:11148   */\n    tag_236:\n        /* \"#utility.yul\":11059:11066   */\n      0x00\n        /* \"#utility.yul\":11099:11141   */\n      0xffffffffffffffffffffffffffffffffffffffff\n        /* \"#utility.yul\":11092:11097   */\n      dup3\n        /* \"#utility.yul\":11088:11142   */\n      and\n        /* \"#utility.yul\":11077:11142   */\n      swap1\n      pop\n        /* \"#utility.yul\":11022:11148   */\n      swap2\n      swap1\n      pop\n      jump\t// out\n        /* \"#utility.yul\":11154:11231   */\n    tag_188:\n        /* \"#utility.yul\":11191:11198   */\n      0x00\n        /* \"#utility.yul\":11220:11225   */\n      dup2\n        /* \"#utility.yul\":11209:11225   */\n      swap1\n      pop\n        /* \"#utility.yul\":11154:11231   */\n      swap2\n      swap1\n      pop\n      jump\t// out\n        /* \"#utility.yul\":11237:11470   */\n    tag_54:\n        /* \"#utility.yul\":11276:11279   */\n      0x00\n        /* \"#utility.yul\":11299:11323   */\n      tag_241\n        /* \"#utility.yul\":11317:11322   */\n      dup3\n        /* \"#utility.yul\":11299:11323   */\n      tag_188\n      jump\t// in\n    tag_241:\n        /* \"#utility.yul\":11290:11323   */\n      swap2\n      pop\n        /* \"#utility.yul\":11345:11411   */\n      0xffffffffffffffffffffffffffffffffffffffffffffffffffffffffffffffff\n        /* \"#utility.yul\":11338:11343   */\n      dup3\n        /* \"#utility.yul\":11335:11412   */\n      eq\n        /* \"#utility.yul\":11332:11435   */\n      iszero\n      tag_242\n      jumpi\n        /* \"#utility.yul\":11415:11433   */\n      tag_243\n      tag_228\n      jump\t// in\n    tag_243:\n        /* \"#utility.yul\":11332:11435   */\n    tag_242:\n        /* \"#utility.yul\":11462:11463   */\n      0x01\n        /* \"#utility.yul\":11455:11460   */\n      dup3\n        /* \"#utility.yul\":11451:11464   */\n      add\n        /* \"#utility.yul\":11444:11464   */\n      swap1\n      pop\n        /* \"#utility.yul\":11237:11470   */\n      swap2\n      swap1\n      pop\n      jump\t// out\n        /* \"#utility.yul\":11476:11656   */\n    tag_228:\n        /* \"#utility.yul\":11524:11601   */\n      0x4e487b7100000000000000000000000000000000000000000000000000000000\n        /* \"#utility.yul\":11521:11522   */\n      0x00\n        /* \"#utility.yul\":11514:11602   */\n      mstore\n        /* \"#utility.yul\":11621:11625   */\n      0x11\n        /* \"#utility.yul\":11618:11619   */\n      0x04\n        /* \"#utility.yul\":11611:11626   */\n      mstore\n        /* \"#utility.yul\":11645:11649   */\n      0x24\n        /* \"#utility.yul\":11642:11643   */\n      0x00\n        /* \"#utility.yul\":11635:11650   */\n      revert\n        /* \"#utility.yul\":11662:11842   */\n    tag_92:\n        /* \"#utility.yul\":11710:11787   */\n      0x4e487b7100000000000000000000000000000000000000000000000000000000\n        /* \"#utility.yul\":11707:11708   */\n      0x00\n        /* \"#utility.yul\":11700:11788   */\n      mstore\n        /* \"#utility.yul\":11807:11811   */\n      0x32\n        /* \"#utility.yul\":11804:11805   */\n      0x04\n        /* \"#utility.yul\":11797:11812   */\n      mstore\n        /* \"#utility.yul\":11831:11835   */\n      0x24\n        /* \"#utility.yul\":11828:11829   */\n      0x00\n        /* \"#utility.yul\":11821:11836   */\n      revert\n        /* \"#utility.yul\":11971:12088   */\n    tag_123:\n        /* \"#utility.yul\":12080:12081   */\n      0x00\n        /* \"#utility.yul\":12077:12078   */\n      dup1\n        /* \"#utility.yul\":12070:12082   */\n      revert\n        /* \"#utility.yul\":12094:12275   */\n    tag_149:\n        /* \"#utility.yul\":12234:12267   */\n      0x4f6e6c7920746865206c616e646c6f72642063616e2061646420726f6f6d7300\n        /* \"#utility.yul\":12230:12231   */\n      0x00\n        /* \"#utility.yul\":12222:12228   */\n      dup3\n        /* \"#utility.yul\":12218:12232   */\n      add\n        /* \"#utility.yul\":12211:12268   */\n      mstore\n        /* \"#utility.yul\":12094:12275   */\n      pop\n      jump\t// out\n        /* \"#utility.yul\":12281:12459   */\n    tag_154:\n        /* \"#utility.yul\":12421:12451   */\n      0x54656e616e7420616e6420726f6f6d20646f206e6f74206d6174636800000000\n        /* \"#utility.yul\":12417:12418   */\n      0x00\n        /* \"#utility.yul\":12409:12415   */\n      dup3\n        /* \"#utility.yul\":12405:12419   */\n      add\n        /* \"#utility.yul\":12398:12452   */\n      mstore\n        /* \"#utility.yul\":12281:12459   */\n      pop\n      jump\t// out\n        /* \"#utility.yul\":12465:12639   */\n    tag_159:\n        /* \"#utility.yul\":12605:12631   */\n      0x526f6f6d20697320616c7265616479206f636375706965640000000000000000\n        /* \"#utility.yul\":12601:12602   */\n      0x00\n        /* \"#utility.yul\":12593:12599   */\n      dup3\n        /* \"#utility.yul\":12589:12603   */\n      add\n        /* \"#utility.yul\":12582:12632   */\n      mstore\n        /* \"#utility.yul\":12465:12639   */\n      pop\n      jump\t// out\n        /* \"#utility.yul\":12645:12817   */\n    tag_164:\n        /* \"#utility.yul\":12785:12809   */\n      0x596f7572206c656173652069732070616964206f666600000000000000000000\n        /* \"#utility.yul\":12781:12782   */\n      0x00\n        /* \"#utility.yul\":12773:12779   */\n      dup3\n        /* \"#utility.yul\":12769:12783   */\n      add\n        /* \"#utility.yul\":12762:12810   */\n      mstore\n        /* \"#utility.yul\":12645:12817   */\n      pop\n      jump\t// out\n        /* \"#utility.yul\":12823:13045   */\n    tag_169:\n        /* \"#utility.yul\":12963:12997   */\n      0x496e73756666696369656e742066756e647320666f722072656e74207061796d\n        /* \"#utility.yul\":12959:12960   */\n      0x00\n        /* \"#utility.yul\":12951:12957   */\n      dup3\n        /* \"#utility.yul\":12947:12961   */\n      add\n        /* \"#utility.yul\":12940:12998   */\n      mstore\n        /* \"#utility.yul\":13032:13037   */\n      0x656e740000000000000000000000000000000000000000000000000000000000\n        /* \"#utility.yul\":13027:13029   */\n      0x20\n        /* \"#utility.yul\":13019:13025   */\n      dup3\n        /* \"#utility.yul\":13015:13030   */\n      add\n        /* \"#utility.yul\":13008:13038   */\n      mstore\n        /* \"#utility.yul\":12823:13045   */\n      pop\n      jump\t// out\n        /* \"#utility.yul\":13051:13275   */\n    tag_174:\n        /* \"#utility.yul\":13191:13225   */\n      0x496e73756666696369656e742066756e647320666f72206465706f7369742072\n        /* \"#utility.yul\":13187:13188   */\n      0x00\n        /* \"#utility.yul\":13179:13185   */\n      dup3\n        /* \"#utility.yul\":13175:13189   */\n      add\n        /* \"#utility.yul\":13168:13226   */\n      mstore\n        /* \"#utility.yul\":13260:13267   */\n      0x6566756e64000000000000000000000000000000000000000000000000000000\n        /* \"#utility.yul\":13255:13257   */\n      0x20\n        /* \"#utility.yul\":13247:13253   */\n      dup3\n        /* \"#utility.yul\":13243:13258   */\n      add\n        /* \"#utility.yul\":13236:13268   */\n      mstore\n        /* \"#utility.yul\":13051:13275   */\n      pop\n      jump\t// out\n        /* \"#utility.yul\":13281:13453   */\n    tag_179:\n        /* \"#utility.yul\":13421:13445   */\n      0x526f6f6d20697320616c726561647920766163616e7400000000000000000000\n        /* \"#utility.yul\":13417:13418   */\n      0x00\n        /* \"#utility.yul\":13409:13415   */\n      dup3\n        /* \"#utility.yul\":13405:13419   */\n      add\n        /* \"#utility.yul\":13398:13446   */\n      mstore\n        /* \"#utility.yul\":13281:13453   */\n      pop\n      jump\t// out\n        /* \"#utility.yul\":13459:13698   */\n    tag_184:\n        /* \"#utility.yul\":13599:13633   */\n      0x596f7520646f6e2774206861766520656e6f7567682066756e647320746f2070\n        /* \"#utility.yul\":13595:13596   */\n      0x00\n        /* \"#utility.yul\":13587:13593   */\n      dup3\n        /* \"#utility.yul\":13583:13597   */\n      add\n        /* \"#utility.yul\":13576:13634   */\n      mstore\n        /* \"#utility.yul\":13668:13690   */\n      0x6179207468652061677265656d656e7420666565000000000000000000000000\n        /* \"#utility.yul\":13663:13665   */\n      0x20\n        /* \"#utility.yul\":13655:13661   */\n      dup3\n        /* \"#utility.yul\":13651:13666   */\n      add\n        /* \"#utility.yul\":13644:13691   */\n      mstore\n        /* \"#utility.yul\":13459:13698   */\n      pop\n      jump\t// out\n        /* \"#utility.yul\":13704:13826   */\n    tag_119:\n        /* \"#utility.yul\":13777:13801   */\n      tag_258\n        /* \"#utility.yul\":13795:13800   */\n      dup2\n        /* \"#utility.yul\":13777:13801   */\n      tag_188\n      jump\t// in\n    tag_258:\n        /* \"#utility.yul\":13770:13775   */\n      dup2\n        /* \"#utility.yul\":13767:13802   */\n      eq\n        /* \"#utility.yul\":13757:13820   */\n      tag_259\n      jumpi\n        /* \"#utility.yul\":13816:13817   */\n      0x00\n        /* \"#utility.yul\":13813:13814   */\n      dup1\n        /* \"#utility.yul\":13806:13818   */\n      revert\n        /* \"#utility.yul\":13757:13820   */\n    tag_259:\n        /* \"#utility.yul\":13704:13826   */\n      pop\n      jump\t// out\n\n    auxdata: 0xa2646970667358221220590e62dd72d2a3502e6fda84f3feac8bb74281f3d4619452278bdbe9f80f31f664736f6c63430008070033\n}\n",
				"bytecode": {
					"linkReferences": {},
					"object": "608060405234801561001057600080fd5b50336000806101000a81548173ffffffffffffffffffffffffffffffffffffffff021916908373ffffffffffffffffffffffffffffffffffffffff160217905550611479806100606000396000f3fe60806040526004361061006f5760003560e01c8063cba6c3561161004e578063cba6c356146100f8578063d18f7e2814610138578063d9e8843f14610179578063e1590cb6146101955761006f565b80622ab6181461007457806333a5acdd1461009d5780639a026924146100dc575b600080fd5b34801561008057600080fd5b5061009b60048036038101906100969190610d7c565b6101b1565b005b3480156100a957600080fd5b506100c460048036038101906100bf9190610d3c565b610333565b6040516100d393929190611014565b60405180910390f35b6100f660048036038101906100f19190610d0f565b61037a565b005b34801561010457600080fd5b5061011f600480360381019061011a9190610d0f565b6105d8565b60405161012f949392919061104b565b60405180910390f35b34801561014457600080fd5b5061015f600480360381019061015a9190610d0f565b610615565b604051610170959493929190611090565b60405180910390f35b610193600480360381019061018e9190610d0f565b61066b565b005b6101af60048036038101906101aa9190610d3c565b610939565b005b60008054906101000a900473ffffffffffffffffffffffffffffffffffffffff1673ffffffffffffffffffffffffffffffffffffffff163373ffffffffffffffffffffffffffffffffffffffff161461023f576040517f08c379a000000000000000000000000000000000000000000000000000000000815260040161023690610f14565b60405180910390fd5b600073ffffffffffffffffffffffffffffffffffffffff163373ffffffffffffffffffffffffffffffffffffffff16141561027957600080fd5b60006001905060005b8481101561032c576040518060800160405280600154815260200185815260200184815260200183151581525060026000600160008154809291906102c6906111c6565b91905055815260200190815260200160002060008201518160000155602082015181600101556040820151816002015560608201518160030160006101000a81548160ff0219169083151502179055509050508080610324906111c6565b915050610282565b5050505050565b6004602052816000526040600020818154811061034f57600080fd5b9060005260206000209060030201600091509150508060000154908060010154908060020154905083565b60008054906101000a900473ffffffffffffffffffffffffffffffffffffffff1673ffffffffffffffffffffffffffffffffffffffff163373ffffffffffffffffffffffffffffffffffffffff1614610408576040517f08c379a00000000000000000000000000000000000000000000000000000000081526004016103ff90610f14565b60405180910390fd5b806002600082815260200190815260200160002060020154341015610462576040517f08c379a000000000000000000000000000000000000000000000000000000000815260040161045990610fb4565b60405180910390fd5b600073ffffffffffffffffffffffffffffffffffffffff163373ffffffffffffffffffffffffffffffffffffffff16141561049c57600080fd5b600015156002600084815260200190815260200160002060030160009054906101000a900460ff16151514610506576040517f08c379a00000000000000000000000000000000000000000000000000000000081526004016104fd90610fd4565b60405180910390fd5b60006002600084815260200190815260200160002060020154905060006003600085815260200190815260200160002060040160009054906101000a900473ffffffffffffffffffffffffffffffffffffffff1690508073ffffffffffffffffffffffffffffffffffffffff166108fc839081150290604051600060405180830381858888f193505050501580156105a2573d6000803e3d6000fd5b5060016002600086815260200190815260200160002060030160006101000a81548160ff02191690831515021790555050505050565b60026020528060005260406000206000915090508060000154908060010154908060020154908060030160009054906101000a900460ff16905084565b60036020528060005260406000206000915090508060000154908060010154908060020154908060030154908060040160009054906101000a900473ffffffffffffffffffffffffffffffffffffffff16905085565b806003600082815260200190815260200160002060040160009054906101000a900473ffffffffffffffffffffffffffffffffffffffff1673ffffffffffffffffffffffffffffffffffffffff163373ffffffffffffffffffffffffffffffffffffffff1614610710576040517f08c379a000000000000000000000000000000000000000000000000000000000815260040161070790610f34565b60405180910390fd5b8160006003600083815260200190815260200160002060020154600360008481526020019081526020016000206001015461074b919061114a565b905060008111610790576040517f08c379a000000000000000000000000000000000000000000000000000000000815260040161078790610f74565b60405180910390fd5b8360026000828152602001908152602001600020600101543410156107ea576040517f08c379a00000000000000000000000000000000000000000000000000000000081526004016107e190610f94565b60405180910390fd5b600073ffffffffffffffffffffffffffffffffffffffff163373ffffffffffffffffffffffffffffffffffffffff16141561082457600080fd5b60006002600087815260200190815260200160002060010154905060008054906101000a900473ffffffffffffffffffffffffffffffffffffffff1673ffffffffffffffffffffffffffffffffffffffff166108fc829081150290604051600060405180830381858888f193505050501580156108a5573d6000803e3d6000fd5b506000600360008881526020019081526020016000206002015490506040518060600160405280888152602001838152602001428152506004600089815260200190815260200160002082815481106109015761090061123e565b5b906000526020600020906003020160008201518160000155602082015181600101556040820151816002015590505050505050505050565b60008054906101000a900473ffffffffffffffffffffffffffffffffffffffff1673ffffffffffffffffffffffffffffffffffffffff163373ffffffffffffffffffffffffffffffffffffffff1614156109c8576040517f08c379a00000000000000000000000000000000000000000000000000000000081526004016109bf90610f14565b60405180910390fd5b81600060026000838152602001908152602001600020600201546002600084815260200190815260200160002060010154610a0391906110f4565b905080341015610a48576040517f08c379a0000000000000000000000000000000000000000000000000000000008152600401610a3f90610ff4565b60405180910390fd5b83600115156002600083815260200190815260200160002060030160009054906101000a900460ff16151514610ab3576040517f08c379a0000000000000000000000000000000000000000000000000000000008152600401610aaa90610f54565b60405180910390fd5b600073ffffffffffffffffffffffffffffffffffffffff163373ffffffffffffffffffffffffffffffffffffffff161415610aed57600080fd5b600060026000878152602001908152602001600020600201546002600088815260200190815260200160002060010154610b2791906110f4565b905060008054906101000a900473ffffffffffffffffffffffffffffffffffffffff1673ffffffffffffffffffffffffffffffffffffffff166108fc829081150290604051600060405180830381858888f19350505050158015610b8f573d6000803e3d6000fd5b5060006002600088815260200190815260200160002060030160006101000a81548160ff0219169083151502179055506040518060a00160405280878152602001868152602001600181526020014281526020013373ffffffffffffffffffffffffffffffffffffffff16815250600360008881526020019081526020016000206000820151816000015560208201518160010155604082015181600201556060820151816003015560808201518160040160006101000a81548173ffffffffffffffffffffffffffffffffffffffff021916908373ffffffffffffffffffffffffffffffffffffffff16021790555090505060405180606001604052808781526020018281526020014281525060046000888152602001908152602001600020600081548110610cc357610cc261123e565b5b9060005260206000209060030201600082015181600001556020820151816001015560408201518160020155905050505050505050565b600081359050610d098161142c565b92915050565b600060208284031215610d2557610d2461126d565b5b6000610d3384828501610cfa565b91505092915050565b60008060408385031215610d5357610d5261126d565b5b6000610d6185828601610cfa565b9250506020610d7285828601610cfa565b9150509250929050565b600080600060608486031215610d9557610d9461126d565b5b6000610da386828701610cfa565b9350506020610db486828701610cfa565b9250506040610dc586828701610cfa565b9150509250925092565b610dd88161117e565b82525050565b610de781611190565b82525050565b6000610dfa601f836110e3565b9150610e0582611272565b602082019050919050565b6000610e1d601c836110e3565b9150610e288261129b565b602082019050919050565b6000610e406018836110e3565b9150610e4b826112c4565b602082019050919050565b6000610e636016836110e3565b9150610e6e826112ed565b602082019050919050565b6000610e866023836110e3565b9150610e9182611316565b604082019050919050565b6000610ea96025836110e3565b9150610eb482611365565b604082019050919050565b6000610ecc6016836110e3565b9150610ed7826113b4565b602082019050919050565b6000610eef6034836110e3565b9150610efa826113dd565b604082019050919050565b610f0e816111bc565b82525050565b60006020820190508181036000830152610f2d81610ded565b9050919050565b60006020820190508181036000830152610f4d81610e10565b9050919050565b60006020820190508181036000830152610f6d81610e33565b9050919050565b60006020820190508181036000830152610f8d81610e56565b9050919050565b60006020820190508181036000830152610fad81610e79565b9050919050565b60006020820190508181036000830152610fcd81610e9c565b9050919050565b60006020820190508181036000830152610fed81610ebf565b9050919050565b6000602082019050818103600083015261100d81610ee2565b9050919050565b60006060820190506110296000830186610f05565b6110366020830185610f05565b6110436040830184610f05565b949350505050565b60006080820190506110606000830187610f05565b61106d6020830186610f05565b61107a6040830185610f05565b6110876060830184610dde565b95945050505050565b600060a0820190506110a56000830188610f05565b6110b26020830187610f05565b6110bf6040830186610f05565b6110cc6060830185610f05565b6110d96080830184610dcf565b9695505050505050565b600082825260208201905092915050565b60006110ff826111bc565b915061110a836111bc565b9250827fffffffffffffffffffffffffffffffffffffffffffffffffffffffffffffffff0382111561113f5761113e61120f565b5b828201905092915050565b6000611155826111bc565b9150611160836111bc565b9250828210156111735761117261120f565b5b828203905092915050565b60006111898261119c565b9050919050565b60008115159050919050565b600073ffffffffffffffffffffffffffffffffffffffff82169050919050565b6000819050919050565b60006111d1826111bc565b91507fffffffffffffffffffffffffffffffffffffffffffffffffffffffffffffffff8214156112045761120361120f565b5b600182019050919050565b7f4e487b7100000000000000000000000000000000000000000000000000000000600052601160045260246000fd5b7f4e487b7100000000000000000000000000000000000000000000000000000000600052603260045260246000fd5b600080fd5b7f4f6e6c7920746865206c616e646c6f72642063616e2061646420726f6f6d7300600082015250565b7f54656e616e7420616e6420726f6f6d20646f206e6f74206d6174636800000000600082015250565b7f526f6f6d20697320616c7265616479206f636375706965640000000000000000600082015250565b7f596f7572206c656173652069732070616964206f666600000000000000000000600082015250565b7f496e73756666696369656e742066756e647320666f722072656e74207061796d60008201527f656e740000000000000000000000000000000000000000000000000000000000602082015250565b7f496e73756666696369656e742066756e647320666f72206465706f736974207260008201527f6566756e64000000000000000000000000000000000000000000000000000000602082015250565b7f526f6f6d20697320616c726561647920766163616e7400000000000000000000600082015250565b7f596f7520646f6e2774206861766520656e6f7567682066756e647320746f207060008201527f6179207468652061677265656d656e7420666565000000000000000000000000602082015250565b611435816111bc565b811461144057600080fd5b5056fea2646970667358221220590e62dd72d2a3502e6fda84f3feac8bb74281f3d4619452278bdbe9f80f31f664736f6c63430008070033",
					"opcodes": "PUSH1 0x80 PUSH1 0x40 MSTORE CALLVALUE DUP1 ISZERO PUSH2 0x10 JUMPI PUSH1 0x0 DUP1 REVERT JUMPDEST POP CALLER PUSH1 0x0 DUP1 PUSH2 0x100 EXP DUP2 SLOAD DUP2 PUSH20 0xFFFFFFFFFFFFFFFFFFFFFFFFFFFFFFFFFFFFFFFF MUL NOT AND SWAP1 DUP4 PUSH20 0xFFFFFFFFFFFFFFFFFFFFFFFFFFFFFFFFFFFFFFFF AND MUL OR SWAP1 SSTORE POP PUSH2 0x1479 DUP1 PUSH2 0x60 PUSH1 0x0 CODECOPY PUSH1 0x0 RETURN INVALID PUSH1 0x80 PUSH1 0x40 MSTORE PUSH1 0x4 CALLDATASIZE LT PUSH2 0x6F JUMPI PUSH1 0x0 CALLDATALOAD PUSH1 0xE0 SHR DUP1 PUSH4 0xCBA6C356 GT PUSH2 0x4E JUMPI DUP1 PUSH4 0xCBA6C356 EQ PUSH2 0xF8 JUMPI DUP1 PUSH4 0xD18F7E28 EQ PUSH2 0x138 JUMPI DUP1 PUSH4 0xD9E8843F EQ PUSH2 0x179 JUMPI DUP1 PUSH4 0xE1590CB6 EQ PUSH2 0x195 JUMPI PUSH2 0x6F JUMP JUMPDEST DUP1 PUSH3 0x2AB618 EQ PUSH2 0x74 JUMPI DUP1 PUSH4 0x33A5ACDD EQ PUSH2 0x9D JUMPI DUP1 PUSH4 0x9A026924 EQ PUSH2 0xDC JUMPI JUMPDEST PUSH1 0x0 DUP1 REVERT JUMPDEST CALLVALUE DUP1 ISZERO PUSH2 0x80 JUMPI PUSH1 0x0 DUP1 REVERT JUMPDEST POP PUSH2 0x9B PUSH1 0x4 DUP1 CALLDATASIZE SUB DUP2 ADD SWAP1 PUSH2 0x96 SWAP2 SWAP1 PUSH2 0xD7C JUMP JUMPDEST PUSH2 0x1B1 JUMP JUMPDEST STOP JUMPDEST CALLVALUE DUP1 ISZERO PUSH2 0xA9 JUMPI PUSH1 0x0 DUP1 REVERT JUMPDEST POP PUSH2 0xC4 PUSH1 0x4 DUP1 CALLDATASIZE SUB DUP2 ADD SWAP1 PUSH2 0xBF SWAP2 SWAP1 PUSH2 0xD3C JUMP JUMPDEST PUSH2 0x333 JUMP JUMPDEST PUSH1 0x40 MLOAD PUSH2 0xD3 SWAP4 SWAP3 SWAP2 SWAP1 PUSH2 0x1014 JUMP JUMPDEST PUSH1 0x40 MLOAD DUP1 SWAP2 SUB SWAP1 RETURN JUMPDEST PUSH2 0xF6 PUSH1 0x4 DUP1 CALLDATASIZE SUB DUP2 ADD SWAP1 PUSH2 0xF1 SWAP2 SWAP1 PUSH2 0xD0F JUMP JUMPDEST PUSH2 0x37A JUMP JUMPDEST STOP JUMPDEST CALLVALUE DUP1 ISZERO PUSH2 0x104 JUMPI PUSH1 0x0 DUP1 REVERT JUMPDEST POP PUSH2 0x11F PUSH1 0x4 DUP1 CALLDATASIZE SUB DUP2 ADD SWAP1 PUSH2 0x11A SWAP2 SWAP1 PUSH2 0xD0F JUMP JUMPDEST PUSH2 0x5D8 JUMP JUMPDEST PUSH1 0x40 MLOAD PUSH2 0x12F SWAP5 SWAP4 SWAP3 SWAP2 SWAP1 PUSH2 0x104B JUMP JUMPDEST PUSH1 0x40 MLOAD DUP1 SWAP2 SUB SWAP1 RETURN JUMPDEST CALLVALUE DUP1 ISZERO PUSH2 0x144 JUMPI PUSH1 0x0 DUP1 REVERT JUMPDEST POP PUSH2 0x15F PUSH1 0x4 DUP1 CALLDATASIZE SUB DUP2 ADD SWAP1 PUSH2 0x15A SWAP2 SWAP1 PUSH2 0xD0F JUMP JUMPDEST PUSH2 0x615 JUMP JUMPDEST PUSH1 0x40 MLOAD PUSH2 0x170 SWAP6 SWAP5 SWAP4 SWAP3 SWAP2 SWAP1 PUSH2 0x1090 JUMP JUMPDEST PUSH1 0x40 MLOAD DUP1 SWAP2 SUB SWAP1 RETURN JUMPDEST PUSH2 0x193 PUSH1 0x4 DUP1 CALLDATASIZE SUB DUP2 ADD SWAP1 PUSH2 0x18E SWAP2 SWAP1 PUSH2 0xD0F JUMP JUMPDEST PUSH2 0x66B JUMP JUMPDEST STOP JUMPDEST PUSH2 0x1AF PUSH1 0x4 DUP1 CALLDATASIZE SUB DUP2 ADD SWAP1 PUSH2 0x1AA SWAP2 SWAP1 PUSH2 0xD3C JUMP JUMPDEST PUSH2 0x939 JUMP JUMPDEST STOP JUMPDEST PUSH1 0x0 DUP1 SLOAD SWAP1 PUSH2 0x100 EXP SWAP1 DIV PUSH20 0xFFFFFFFFFFFFFFFFFFFFFFFFFFFFFFFFFFFFFFFF AND PUSH20 0xFFFFFFFFFFFFFFFFFFFFFFFFFFFFFFFFFFFFFFFF AND CALLER PUSH20 0xFFFFFFFFFFFFFFFFFFFFFFFFFFFFFFFFFFFFFFFF AND EQ PUSH2 0x23F JUMPI PUSH1 0x40 MLOAD PUSH32 0x8C379A000000000000000000000000000000000000000000000000000000000 DUP2 MSTORE PUSH1 0x4 ADD PUSH2 0x236 SWAP1 PUSH2 0xF14 JUMP JUMPDEST PUSH1 0x40 MLOAD DUP1 SWAP2 SUB SWAP1 REVERT JUMPDEST PUSH1 0x0 PUSH20 0xFFFFFFFFFFFFFFFFFFFFFFFFFFFFFFFFFFFFFFFF AND CALLER PUSH20 0xFFFFFFFFFFFFFFFFFFFFFFFFFFFFFFFFFFFFFFFF AND EQ ISZERO PUSH2 0x279 JUMPI PUSH1 0x0 DUP1 REVERT JUMPDEST PUSH1 0x0 PUSH1 0x1 SWAP1 POP PUSH1 0x0 JUMPDEST DUP5 DUP2 LT ISZERO PUSH2 0x32C JUMPI PUSH1 0x40 MLOAD DUP1 PUSH1 0x80 ADD PUSH1 0x40 MSTORE DUP1 PUSH1 0x1 SLOAD DUP2 MSTORE PUSH1 0x20 ADD DUP6 DUP2 MSTORE PUSH1 0x20 ADD DUP5 DUP2 MSTORE PUSH1 0x20 ADD DUP4 ISZERO ISZERO DUP2 MSTORE POP PUSH1 0x2 PUSH1 0x0 PUSH1 0x1 PUSH1 0x0 DUP2 SLOAD DUP1 SWAP3 SWAP2 SWAP1 PUSH2 0x2C6 SWAP1 PUSH2 0x11C6 JUMP JUMPDEST SWAP2 SWAP1 POP SSTORE DUP2 MSTORE PUSH1 0x20 ADD SWAP1 DUP2 MSTORE PUSH1 0x20 ADD PUSH1 0x0 KECCAK256 PUSH1 0x0 DUP3 ADD MLOAD DUP2 PUSH1 0x0 ADD SSTORE PUSH1 0x20 DUP3 ADD MLOAD DUP2 PUSH1 0x1 ADD SSTORE PUSH1 0x40 DUP3 ADD MLOAD DUP2 PUSH1 0x2 ADD SSTORE PUSH1 0x60 DUP3 ADD MLOAD DUP2 PUSH1 0x3 ADD PUSH1 0x0 PUSH2 0x100 EXP DUP2 SLOAD DUP2 PUSH1 0xFF MUL NOT AND SWAP1 DUP4 ISZERO ISZERO MUL OR SWAP1 SSTORE POP SWAP1 POP POP DUP1 DUP1 PUSH2 0x324 SWAP1 PUSH2 0x11C6 JUMP JUMPDEST SWAP2 POP POP PUSH2 0x282 JUMP JUMPDEST POP POP POP POP POP JUMP JUMPDEST PUSH1 0x4 PUSH1 0x20 MSTORE DUP2 PUSH1 0x0 MSTORE PUSH1 0x40 PUSH1 0x0 KECCAK256 DUP2 DUP2 SLOAD DUP2 LT PUSH2 0x34F JUMPI PUSH1 0x0 DUP1 REVERT JUMPDEST SWAP1 PUSH1 0x0 MSTORE PUSH1 0x20 PUSH1 0x0 KECCAK256 SWAP1 PUSH1 0x3 MUL ADD PUSH1 0x0 SWAP2 POP SWAP2 POP POP DUP1 PUSH1 0x0 ADD SLOAD SWAP1 DUP1 PUSH1 0x1 ADD SLOAD SWAP1 DUP1 PUSH1 0x2 ADD SLOAD SWAP1 POP DUP4 JUMP JUMPDEST PUSH1 0x0 DUP1 SLOAD SWAP1 PUSH2 0x100 EXP SWAP1 DIV PUSH20 0xFFFFFFFFFFFFFFFFFFFFFFFFFFFFFFFFFFFFFFFF AND PUSH20 0xFFFFFFFFFFFFFFFFFFFFFFFFFFFFFFFFFFFFFFFF AND CALLER PUSH20 0xFFFFFFFFFFFFFFFFFFFFFFFFFFFFFFFFFFFFFFFF AND EQ PUSH2 0x408 JUMPI PUSH1 0x40 MLOAD PUSH32 0x8C379A000000000000000000000000000000000000000000000000000000000 DUP2 MSTORE PUSH1 0x4 ADD PUSH2 0x3FF SWAP1 PUSH2 0xF14 JUMP JUMPDEST PUSH1 0x40 MLOAD DUP1 SWAP2 SUB SWAP1 REVERT JUMPDEST DUP1 PUSH1 0x2 PUSH1 0x0 DUP3 DUP2 MSTORE PUSH1 0x20 ADD SWAP1 DUP2 MSTORE PUSH1 0x20 ADD PUSH1 0x0 KECCAK256 PUSH1 0x2 ADD SLOAD CALLVALUE LT ISZERO PUSH2 0x462 JUMPI PUSH1 0x40 MLOAD PUSH32 0x8C379A000000000000000000000000000000000000000000000000000000000 DUP2 MSTORE PUSH1 0x4 ADD PUSH2 0x459 SWAP1 PUSH2 0xFB4 JUMP JUMPDEST PUSH1 0x40 MLOAD DUP1 SWAP2 SUB SWAP1 REVERT JUMPDEST PUSH1 0x0 PUSH20 0xFFFFFFFFFFFFFFFFFFFFFFFFFFFFFFFFFFFFFFFF AND CALLER PUSH20 0xFFFFFFFFFFFFFFFFFFFFFFFFFFFFFFFFFFFFFFFF AND EQ ISZERO PUSH2 0x49C JUMPI PUSH1 0x0 DUP1 REVERT JUMPDEST PUSH1 0x0 ISZERO ISZERO PUSH1 0x2 PUSH1 0x0 DUP5 DUP2 MSTORE PUSH1 0x20 ADD SWAP1 DUP2 MSTORE PUSH1 0x20 ADD PUSH1 0x0 KECCAK256 PUSH1 0x3 ADD PUSH1 0x0 SWAP1 SLOAD SWAP1 PUSH2 0x100 EXP SWAP1 DIV PUSH1 0xFF AND ISZERO ISZERO EQ PUSH2 0x506 JUMPI PUSH1 0x40 MLOAD PUSH32 0x8C379A000000000000000000000000000000000000000000000000000000000 DUP2 MSTORE PUSH1 0x4 ADD PUSH2 0x4FD SWAP1 PUSH2 0xFD4 JUMP JUMPDEST PUSH1 0x40 MLOAD DUP1 SWAP2 SUB SWAP1 REVERT JUMPDEST PUSH1 0x0 PUSH1 0x2 PUSH1 0x0 DUP5 DUP2 MSTORE PUSH1 0x20 ADD SWAP1 DUP2 MSTORE PUSH1 0x20 ADD PUSH1 0x0 KECCAK256 PUSH1 0x2 ADD SLOAD SWAP1 POP PUSH1 0x0 PUSH1 0x3 PUSH1 0x0 DUP6 DUP2 MSTORE PUSH1 0x20 ADD SWAP1 DUP2 MSTORE PUSH1 0x20 ADD PUSH1 0x0 KECCAK256 PUSH1 0x4 ADD PUSH1 0x0 SWAP1 SLOAD SWAP1 PUSH2 0x100 EXP SWAP1 DIV PUSH20 0xFFFFFFFFFFFFFFFFFFFFFFFFFFFFFFFFFFFFFFFF AND SWAP1 POP DUP1 PUSH20 0xFFFFFFFFFFFFFFFFFFFFFFFFFFFFFFFFFFFFFFFF AND PUSH2 0x8FC DUP4 SWAP1 DUP2 ISZERO MUL SWAP1 PUSH1 0x40 MLOAD PUSH1 0x0 PUSH1 0x40 MLOAD DUP1 DUP4 SUB DUP2 DUP6 DUP9 DUP9 CALL SWAP4 POP POP POP POP ISZERO DUP1 ISZERO PUSH2 0x5A2 JUMPI RETURNDATASIZE PUSH1 0x0 DUP1 RETURNDATACOPY RETURNDATASIZE PUSH1 0x0 REVERT JUMPDEST POP PUSH1 0x1 PUSH1 0x2 PUSH1 0x0 DUP7 DUP2 MSTORE PUSH1 0x20 ADD SWAP1 DUP2 MSTORE PUSH1 0x20 ADD PUSH1 0x0 KECCAK256 PUSH1 0x3 ADD PUSH1 0x0 PUSH2 0x100 EXP DUP2 SLOAD DUP2 PUSH1 0xFF MUL NOT AND SWAP1 DUP4 ISZERO ISZERO MUL OR SWAP1 SSTORE POP POP POP POP POP JUMP JUMPDEST PUSH1 0x2 PUSH1 0x20 MSTORE DUP1 PUSH1 0x0 MSTORE PUSH1 0x40 PUSH1 0x0 KECCAK256 PUSH1 0x0 SWAP2 POP SWAP1 POP DUP1 PUSH1 0x0 ADD SLOAD SWAP1 DUP1 PUSH1 0x1 ADD SLOAD SWAP1 DUP1 PUSH1 0x2 ADD SLOAD SWAP1 DUP1 PUSH1 0x3 ADD PUSH1 0x0 SWAP1 SLOAD SWAP1 PUSH2 0x100 EXP SWAP1 DIV PUSH1 0xFF AND SWAP1 POP DUP5 JUMP JUMPDEST PUSH1 0x3 PUSH1 0x20 MSTORE DUP1 PUSH1 0x0 MSTORE PUSH1 0x40 PUSH1 0x0 KECCAK256 PUSH1 0x0 SWAP2 POP SWAP1 POP DUP1 PUSH1 0x0 ADD SLOAD SWAP1 DUP1 PUSH1 0x1 ADD SLOAD SWAP1 DUP1 PUSH1 0x2 ADD SLOAD SWAP1 DUP1 PUSH1 0x3 ADD SLOAD SWAP1 DUP1 PUSH1 0x4 ADD PUSH1 0x0 SWAP1 SLOAD SWAP1 PUSH2 0x100 EXP SWAP1 DIV PUSH20 0xFFFFFFFFFFFFFFFFFFFFFFFFFFFFFFFFFFFFFFFF AND SWAP1 POP DUP6 JUMP JUMPDEST DUP1 PUSH1 0x3 PUSH1 0x0 DUP3 DUP2 MSTORE PUSH1 0x20 ADD SWAP1 DUP2 MSTORE PUSH1 0x20 ADD PUSH1 0x0 KECCAK256 PUSH1 0x4 ADD PUSH1 0x0 SWAP1 SLOAD SWAP1 PUSH2 0x100 EXP SWAP1 DIV PUSH20 0xFFFFFFFFFFFFFFFFFFFFFFFFFFFFFFFFFFFFFFFF AND PUSH20 0xFFFFFFFFFFFFFFFFFFFFFFFFFFFFFFFFFFFFFFFF AND CALLER PUSH20 0xFFFFFFFFFFFFFFFFFFFFFFFFFFFFFFFFFFFFFFFF AND EQ PUSH2 0x710 JUMPI PUSH1 0x40 MLOAD PUSH32 0x8C379A000000000000000000000000000000000000000000000000000000000 DUP2 MSTORE PUSH1 0x4 ADD PUSH2 0x707 SWAP1 PUSH2 0xF34 JUMP JUMPDEST PUSH1 0x40 MLOAD DUP1 SWAP2 SUB SWAP1 REVERT JUMPDEST DUP2 PUSH1 0x0 PUSH1 0x3 PUSH1 0x0 DUP4 DUP2 MSTORE PUSH1 0x20 ADD SWAP1 DUP2 MSTORE PUSH1 0x20 ADD PUSH1 0x0 KECCAK256 PUSH1 0x2 ADD SLOAD PUSH1 0x3 PUSH1 0x0 DUP5 DUP2 MSTORE PUSH1 0x20 ADD SWAP1 DUP2 MSTORE PUSH1 0x20 ADD PUSH1 0x0 KECCAK256 PUSH1 0x1 ADD SLOAD PUSH2 0x74B SWAP2 SWAP1 PUSH2 0x114A JUMP JUMPDEST SWAP1 POP PUSH1 0x0 DUP2 GT PUSH2 0x790 JUMPI PUSH1 0x40 MLOAD PUSH32 0x8C379A000000000000000000000000000000000000000000000000000000000 DUP2 MSTORE PUSH1 0x4 ADD PUSH2 0x787 SWAP1 PUSH2 0xF74 JUMP JUMPDEST PUSH1 0x40 MLOAD DUP1 SWAP2 SUB SWAP1 REVERT JUMPDEST DUP4 PUSH1 0x2 PUSH1 0x0 DUP3 DUP2 MSTORE PUSH1 0x20 ADD SWAP1 DUP2 MSTORE PUSH1 0x20 ADD PUSH1 0x0 KECCAK256 PUSH1 0x1 ADD SLOAD CALLVALUE LT ISZERO PUSH2 0x7EA JUMPI PUSH1 0x40 MLOAD PUSH32 0x8C379A000000000000000000000000000000000000000000000000000000000 DUP2 MSTORE PUSH1 0x4 ADD PUSH2 0x7E1 SWAP1 PUSH2 0xF94 JUMP JUMPDEST PUSH1 0x40 MLOAD DUP1 SWAP2 SUB SWAP1 REVERT JUMPDEST PUSH1 0x0 PUSH20 0xFFFFFFFFFFFFFFFFFFFFFFFFFFFFFFFFFFFFFFFF AND CALLER PUSH20 0xFFFFFFFFFFFFFFFFFFFFFFFFFFFFFFFFFFFFFFFF AND EQ ISZERO PUSH2 0x824 JUMPI PUSH1 0x0 DUP1 REVERT JUMPDEST PUSH1 0x0 PUSH1 0x2 PUSH1 0x0 DUP8 DUP2 MSTORE PUSH1 0x20 ADD SWAP1 DUP2 MSTORE PUSH1 0x20 ADD PUSH1 0x0 KECCAK256 PUSH1 0x1 ADD SLOAD SWAP1 POP PUSH1 0x0 DUP1 SLOAD SWAP1 PUSH2 0x100 EXP SWAP1 DIV PUSH20 0xFFFFFFFFFFFFFFFFFFFFFFFFFFFFFFFFFFFFFFFF AND PUSH20 0xFFFFFFFFFFFFFFFFFFFFFFFFFFFFFFFFFFFFFFFF AND PUSH2 0x8FC DUP3 SWAP1 DUP2 ISZERO MUL SWAP1 PUSH1 0x40 MLOAD PUSH1 0x0 PUSH1 0x40 MLOAD DUP1 DUP4 SUB DUP2 DUP6 DUP9 DUP9 CALL SWAP4 POP POP POP POP ISZERO DUP1 ISZERO PUSH2 0x8A5 JUMPI RETURNDATASIZE PUSH1 0x0 DUP1 RETURNDATACOPY RETURNDATASIZE PUSH1 0x0 REVERT JUMPDEST POP PUSH1 0x0 PUSH1 0x3 PUSH1 0x0 DUP9 DUP2 MSTORE PUSH1 0x20 ADD SWAP1 DUP2 MSTORE PUSH1 0x20 ADD PUSH1 0x0 KECCAK256 PUSH1 0x2 ADD SLOAD SWAP1 POP PUSH1 0x40 MLOAD DUP1 PUSH1 0x60 ADD PUSH1 0x40 MSTORE DUP1 DUP9 DUP2 MSTORE PUSH1 0x20 ADD DUP4 DUP2 MSTORE PUSH1 0x20 ADD TIMESTAMP DUP2 MSTORE POP PUSH1 0x4 PUSH1 0x0 DUP10 DUP2 MSTORE PUSH1 0x20 ADD SWAP1 DUP2 MSTORE PUSH1 0x20 ADD PUSH1 0x0 KECCAK256 DUP3 DUP2 SLOAD DUP2 LT PUSH2 0x901 JUMPI PUSH2 0x900 PUSH2 0x123E JUMP JUMPDEST JUMPDEST SWAP1 PUSH1 0x0 MSTORE PUSH1 0x20 PUSH1 0x0 KECCAK256 SWAP1 PUSH1 0x3 MUL ADD PUSH1 0x0 DUP3 ADD MLOAD DUP2 PUSH1 0x0 ADD SSTORE PUSH1 0x20 DUP3 ADD MLOAD DUP2 PUSH1 0x1 ADD SSTORE PUSH1 0x40 DUP3 ADD MLOAD DUP2 PUSH1 0x2 ADD SSTORE SWAP1 POP POP POP POP POP POP POP POP POP JUMP JUMPDEST PUSH1 0x0 DUP1 SLOAD SWAP1 PUSH2 0x100 EXP SWAP1 DIV PUSH20 0xFFFFFFFFFFFFFFFFFFFFFFFFFFFFFFFFFFFFFFFF AND PUSH20 0xFFFFFFFFFFFFFFFFFFFFFFFFFFFFFFFFFFFFFFFF AND CALLER PUSH20 0xFFFFFFFFFFFFFFFFFFFFFFFFFFFFFFFFFFFFFFFF AND EQ ISZERO PUSH2 0x9C8 JUMPI PUSH1 0x40 MLOAD PUSH32 0x8C379A000000000000000000000000000000000000000000000000000000000 DUP2 MSTORE PUSH1 0x4 ADD PUSH2 0x9BF SWAP1 PUSH2 0xF14 JUMP JUMPDEST PUSH1 0x40 MLOAD DUP1 SWAP2 SUB SWAP1 REVERT JUMPDEST DUP2 PUSH1 0x0 PUSH1 0x2 PUSH1 0x0 DUP4 DUP2 MSTORE PUSH1 0x20 ADD SWAP1 DUP2 MSTORE PUSH1 0x20 ADD PUSH1 0x0 KECCAK256 PUSH1 0x2 ADD SLOAD PUSH1 0x2 PUSH1 0x0 DUP5 DUP2 MSTORE PUSH1 0x20 ADD SWAP1 DUP2 MSTORE PUSH1 0x20 ADD PUSH1 0x0 KECCAK256 PUSH1 0x1 ADD SLOAD PUSH2 0xA03 SWAP2 SWAP1 PUSH2 0x10F4 JUMP JUMPDEST SWAP1 POP DUP1 CALLVALUE LT ISZERO PUSH2 0xA48 JUMPI PUSH1 0x40 MLOAD PUSH32 0x8C379A000000000000000000000000000000000000000000000000000000000 DUP2 MSTORE PUSH1 0x4 ADD PUSH2 0xA3F SWAP1 PUSH2 0xFF4 JUMP JUMPDEST PUSH1 0x40 MLOAD DUP1 SWAP2 SUB SWAP1 REVERT JUMPDEST DUP4 PUSH1 0x1 ISZERO ISZERO PUSH1 0x2 PUSH1 0x0 DUP4 DUP2 MSTORE PUSH1 0x20 ADD SWAP1 DUP2 MSTORE PUSH1 0x20 ADD PUSH1 0x0 KECCAK256 PUSH1 0x3 ADD PUSH1 0x0 SWAP1 SLOAD SWAP1 PUSH2 0x100 EXP SWAP1 DIV PUSH1 0xFF AND ISZERO ISZERO EQ PUSH2 0xAB3 JUMPI PUSH1 0x40 MLOAD PUSH32 0x8C379A000000000000000000000000000000000000000000000000000000000 DUP2 MSTORE PUSH1 0x4 ADD PUSH2 0xAAA SWAP1 PUSH2 0xF54 JUMP JUMPDEST PUSH1 0x40 MLOAD DUP1 SWAP2 SUB SWAP1 REVERT JUMPDEST PUSH1 0x0 PUSH20 0xFFFFFFFFFFFFFFFFFFFFFFFFFFFFFFFFFFFFFFFF AND CALLER PUSH20 0xFFFFFFFFFFFFFFFFFFFFFFFFFFFFFFFFFFFFFFFF AND EQ ISZERO PUSH2 0xAED JUMPI PUSH1 0x0 DUP1 REVERT JUMPDEST PUSH1 0x0 PUSH1 0x2 PUSH1 0x0 DUP8 DUP2 MSTORE PUSH1 0x20 ADD SWAP1 DUP2 MSTORE PUSH1 0x20 ADD PUSH1 0x0 KECCAK256 PUSH1 0x2 ADD SLOAD PUSH1 0x2 PUSH1 0x0 DUP9 DUP2 MSTORE PUSH1 0x20 ADD SWAP1 DUP2 MSTORE PUSH1 0x20 ADD PUSH1 0x0 KECCAK256 PUSH1 0x1 ADD SLOAD PUSH2 0xB27 SWAP2 SWAP1 PUSH2 0x10F4 JUMP JUMPDEST SWAP1 POP PUSH1 0x0 DUP1 SLOAD SWAP1 PUSH2 0x100 EXP SWAP1 DIV PUSH20 0xFFFFFFFFFFFFFFFFFFFFFFFFFFFFFFFFFFFFFFFF AND PUSH20 0xFFFFFFFFFFFFFFFFFFFFFFFFFFFFFFFFFFFFFFFF AND PUSH2 0x8FC DUP3 SWAP1 DUP2 ISZERO MUL SWAP1 PUSH1 0x40 MLOAD PUSH1 0x0 PUSH1 0x40 MLOAD DUP1 DUP4 SUB DUP2 DUP6 DUP9 DUP9 CALL SWAP4 POP POP POP POP ISZERO DUP1 ISZERO PUSH2 0xB8F JUMPI RETURNDATASIZE PUSH1 0x0 DUP1 RETURNDATACOPY RETURNDATASIZE PUSH1 0x0 REVERT JUMPDEST POP PUSH1 0x0 PUSH1 0x2 PUSH1 0x0 DUP9 DUP2 MSTORE PUSH1 0x20 ADD SWAP1 DUP2 MSTORE PUSH1 0x20 ADD PUSH1 0x0 KECCAK256 PUSH1 0x3 ADD PUSH1 0x0 PUSH2 0x100 EXP DUP2 SLOAD DUP2 PUSH1 0xFF MUL NOT AND SWAP1 DUP4 ISZERO ISZERO MUL OR SWAP1 SSTORE POP PUSH1 0x40 MLOAD DUP1 PUSH1 0xA0 ADD PUSH1 0x40 MSTORE DUP1 DUP8 DUP2 MSTORE PUSH1 0x20 ADD DUP7 DUP2 MSTORE PUSH1 0x20 ADD PUSH1 0x1 DUP2 MSTORE PUSH1 0x20 ADD TIMESTAMP DUP2 MSTORE PUSH1 0x20 ADD CALLER PUSH20 0xFFFFFFFFFFFFFFFFFFFFFFFFFFFFFFFFFFFFFFFF AND DUP2 MSTORE POP PUSH1 0x3 PUSH1 0x0 DUP9 DUP2 MSTORE PUSH1 0x20 ADD SWAP1 DUP2 MSTORE PUSH1 0x20 ADD PUSH1 0x0 KECCAK256 PUSH1 0x0 DUP3 ADD MLOAD DUP2 PUSH1 0x0 ADD SSTORE PUSH1 0x20 DUP3 ADD MLOAD DUP2 PUSH1 0x1 ADD SSTORE PUSH1 0x40 DUP3 ADD MLOAD DUP2 PUSH1 0x2 ADD SSTORE PUSH1 0x60 DUP3 ADD MLOAD DUP2 PUSH1 0x3 ADD SSTORE PUSH1 0x80 DUP3 ADD MLOAD DUP2 PUSH1 0x4 ADD PUSH1 0x0 PUSH2 0x100 EXP DUP2 SLOAD DUP2 PUSH20 0xFFFFFFFFFFFFFFFFFFFFFFFFFFFFFFFFFFFFFFFF MUL NOT AND SWAP1 DUP4 PUSH20 0xFFFFFFFFFFFFFFFFFFFFFFFFFFFFFFFFFFFFFFFF AND MUL OR SWAP1 SSTORE POP SWAP1 POP POP PUSH1 0x40 MLOAD DUP1 PUSH1 0x60 ADD PUSH1 0x40 MSTORE DUP1 DUP8 DUP2 MSTORE PUSH1 0x20 ADD DUP3 DUP2 MSTORE PUSH1 0x20 ADD TIMESTAMP DUP2 MSTORE POP PUSH1 0x4 PUSH1 0x0 DUP9 DUP2 MSTORE PUSH1 0x20 ADD SWAP1 DUP2 MSTORE PUSH1 0x20 ADD PUSH1 0x0 KECCAK256 PUSH1 0x0 DUP2 SLOAD DUP2 LT PUSH2 0xCC3 JUMPI PUSH2 0xCC2 PUSH2 0x123E JUMP JUMPDEST JUMPDEST SWAP1 PUSH1 0x0 MSTORE PUSH1 0x20 PUSH1 0x0 KECCAK256 SWAP1 PUSH1 0x3 MUL ADD PUSH1 0x0 DUP3 ADD MLOAD DUP2 PUSH1 0x0 ADD SSTORE PUSH1 0x20 DUP3 ADD MLOAD DUP2 PUSH1 0x1 ADD SSTORE PUSH1 0x40 DUP3 ADD MLOAD DUP2 PUSH1 0x2 ADD SSTORE SWAP1 POP POP POP POP POP POP POP POP JUMP JUMPDEST PUSH1 0x0 DUP2 CALLDATALOAD SWAP1 POP PUSH2 0xD09 DUP2 PUSH2 0x142C JUMP JUMPDEST SWAP3 SWAP2 POP POP JUMP JUMPDEST PUSH1 0x0 PUSH1 0x20 DUP3 DUP5 SUB SLT ISZERO PUSH2 0xD25 JUMPI PUSH2 0xD24 PUSH2 0x126D JUMP JUMPDEST JUMPDEST PUSH1 0x0 PUSH2 0xD33 DUP5 DUP3 DUP6 ADD PUSH2 0xCFA JUMP JUMPDEST SWAP2 POP POP SWAP3 SWAP2 POP POP JUMP JUMPDEST PUSH1 0x0 DUP1 PUSH1 0x40 DUP4 DUP6 SUB SLT ISZERO PUSH2 0xD53 JUMPI PUSH2 0xD52 PUSH2 0x126D JUMP JUMPDEST JUMPDEST PUSH1 0x0 PUSH2 0xD61 DUP6 DUP3 DUP7 ADD PUSH2 0xCFA JUMP JUMPDEST SWAP3 POP POP PUSH1 0x20 PUSH2 0xD72 DUP6 DUP3 DUP7 ADD PUSH2 0xCFA JUMP JUMPDEST SWAP2 POP POP SWAP3 POP SWAP3 SWAP1 POP JUMP JUMPDEST PUSH1 0x0 DUP1 PUSH1 0x0 PUSH1 0x60 DUP5 DUP7 SUB SLT ISZERO PUSH2 0xD95 JUMPI PUSH2 0xD94 PUSH2 0x126D JUMP JUMPDEST JUMPDEST PUSH1 0x0 PUSH2 0xDA3 DUP7 DUP3 DUP8 ADD PUSH2 0xCFA JUMP JUMPDEST SWAP4 POP POP PUSH1 0x20 PUSH2 0xDB4 DUP7 DUP3 DUP8 ADD PUSH2 0xCFA JUMP JUMPDEST SWAP3 POP POP PUSH1 0x40 PUSH2 0xDC5 DUP7 DUP3 DUP8 ADD PUSH2 0xCFA JUMP JUMPDEST SWAP2 POP POP SWAP3 POP SWAP3 POP SWAP3 JUMP JUMPDEST PUSH2 0xDD8 DUP2 PUSH2 0x117E JUMP JUMPDEST DUP3 MSTORE POP POP JUMP JUMPDEST PUSH2 0xDE7 DUP2 PUSH2 0x1190 JUMP JUMPDEST DUP3 MSTORE POP POP JUMP JUMPDEST PUSH1 0x0 PUSH2 0xDFA PUSH1 0x1F DUP4 PUSH2 0x10E3 JUMP JUMPDEST SWAP2 POP PUSH2 0xE05 DUP3 PUSH2 0x1272 JUMP JUMPDEST PUSH1 0x20 DUP3 ADD SWAP1 POP SWAP2 SWAP1 POP JUMP JUMPDEST PUSH1 0x0 PUSH2 0xE1D PUSH1 0x1C DUP4 PUSH2 0x10E3 JUMP JUMPDEST SWAP2 POP PUSH2 0xE28 DUP3 PUSH2 0x129B JUMP JUMPDEST PUSH1 0x20 DUP3 ADD SWAP1 POP SWAP2 SWAP1 POP JUMP JUMPDEST PUSH1 0x0 PUSH2 0xE40 PUSH1 0x18 DUP4 PUSH2 0x10E3 JUMP JUMPDEST SWAP2 POP PUSH2 0xE4B DUP3 PUSH2 0x12C4 JUMP JUMPDEST PUSH1 0x20 DUP3 ADD SWAP1 POP SWAP2 SWAP1 POP JUMP JUMPDEST PUSH1 0x0 PUSH2 0xE63 PUSH1 0x16 DUP4 PUSH2 0x10E3 JUMP JUMPDEST SWAP2 POP PUSH2 0xE6E DUP3 PUSH2 0x12ED JUMP JUMPDEST PUSH1 0x20 DUP3 ADD SWAP1 POP SWAP2 SWAP1 POP JUMP JUMPDEST PUSH1 0x0 PUSH2 0xE86 PUSH1 0x23 DUP4 PUSH2 0x10E3 JUMP JUMPDEST SWAP2 POP PUSH2 0xE91 DUP3 PUSH2 0x1316 JUMP JUMPDEST PUSH1 0x40 DUP3 ADD SWAP1 POP SWAP2 SWAP1 POP JUMP JUMPDEST PUSH1 0x0 PUSH2 0xEA9 PUSH1 0x25 DUP4 PUSH2 0x10E3 JUMP JUMPDEST SWAP2 POP PUSH2 0xEB4 DUP3 PUSH2 0x1365 JUMP JUMPDEST PUSH1 0x40 DUP3 ADD SWAP1 POP SWAP2 SWAP1 POP JUMP JUMPDEST PUSH1 0x0 PUSH2 0xECC PUSH1 0x16 DUP4 PUSH2 0x10E3 JUMP JUMPDEST SWAP2 POP PUSH2 0xED7 DUP3 PUSH2 0x13B4 JUMP JUMPDEST PUSH1 0x20 DUP3 ADD SWAP1 POP SWAP2 SWAP1 POP JUMP JUMPDEST PUSH1 0x0 PUSH2 0xEEF PUSH1 0x34 DUP4 PUSH2 0x10E3 JUMP JUMPDEST SWAP2 POP PUSH2 0xEFA DUP3 PUSH2 0x13DD JUMP JUMPDEST PUSH1 0x40 DUP3 ADD SWAP1 POP SWAP2 SWAP1 POP JUMP JUMPDEST PUSH2 0xF0E DUP2 PUSH2 0x11BC JUMP JUMPDEST DUP3 MSTORE POP POP JUMP JUMPDEST PUSH1 0x0 PUSH1 0x20 DUP3 ADD SWAP1 POP DUP2 DUP2 SUB PUSH1 0x0 DUP4 ADD MSTORE PUSH2 0xF2D DUP2 PUSH2 0xDED JUMP JUMPDEST SWAP1 POP SWAP2 SWAP1 POP JUMP JUMPDEST PUSH1 0x0 PUSH1 0x20 DUP3 ADD SWAP1 POP DUP2 DUP2 SUB PUSH1 0x0 DUP4 ADD MSTORE PUSH2 0xF4D DUP2 PUSH2 0xE10 JUMP JUMPDEST SWAP1 POP SWAP2 SWAP1 POP JUMP JUMPDEST PUSH1 0x0 PUSH1 0x20 DUP3 ADD SWAP1 POP DUP2 DUP2 SUB PUSH1 0x0 DUP4 ADD MSTORE PUSH2 0xF6D DUP2 PUSH2 0xE33 JUMP JUMPDEST SWAP1 POP SWAP2 SWAP1 POP JUMP JUMPDEST PUSH1 0x0 PUSH1 0x20 DUP3 ADD SWAP1 POP DUP2 DUP2 SUB PUSH1 0x0 DUP4 ADD MSTORE PUSH2 0xF8D DUP2 PUSH2 0xE56 JUMP JUMPDEST SWAP1 POP SWAP2 SWAP1 POP JUMP JUMPDEST PUSH1 0x0 PUSH1 0x20 DUP3 ADD SWAP1 POP DUP2 DUP2 SUB PUSH1 0x0 DUP4 ADD MSTORE PUSH2 0xFAD DUP2 PUSH2 0xE79 JUMP JUMPDEST SWAP1 POP SWAP2 SWAP1 POP JUMP JUMPDEST PUSH1 0x0 PUSH1 0x20 DUP3 ADD SWAP1 POP DUP2 DUP2 SUB PUSH1 0x0 DUP4 ADD MSTORE PUSH2 0xFCD DUP2 PUSH2 0xE9C JUMP JUMPDEST SWAP1 POP SWAP2 SWAP1 POP JUMP JUMPDEST PUSH1 0x0 PUSH1 0x20 DUP3 ADD SWAP1 POP DUP2 DUP2 SUB PUSH1 0x0 DUP4 ADD MSTORE PUSH2 0xFED DUP2 PUSH2 0xEBF JUMP JUMPDEST SWAP1 POP SWAP2 SWAP1 POP JUMP JUMPDEST PUSH1 0x0 PUSH1 0x20 DUP3 ADD SWAP1 POP DUP2 DUP2 SUB PUSH1 0x0 DUP4 ADD MSTORE PUSH2 0x100D DUP2 PUSH2 0xEE2 JUMP JUMPDEST SWAP1 POP SWAP2 SWAP1 POP JUMP JUMPDEST PUSH1 0x0 PUSH1 0x60 DUP3 ADD SWAP1 POP PUSH2 0x1029 PUSH1 0x0 DUP4 ADD DUP7 PUSH2 0xF05 JUMP JUMPDEST PUSH2 0x1036 PUSH1 0x20 DUP4 ADD DUP6 PUSH2 0xF05 JUMP JUMPDEST PUSH2 0x1043 PUSH1 0x40 DUP4 ADD DUP5 PUSH2 0xF05 JUMP JUMPDEST SWAP5 SWAP4 POP POP POP POP JUMP JUMPDEST PUSH1 0x0 PUSH1 0x80 DUP3 ADD SWAP1 POP PUSH2 0x1060 PUSH1 0x0 DUP4 ADD DUP8 PUSH2 0xF05 JUMP JUMPDEST PUSH2 0x106D PUSH1 0x20 DUP4 ADD DUP7 PUSH2 0xF05 JUMP JUMPDEST PUSH2 0x107A PUSH1 0x40 DUP4 ADD DUP6 PUSH2 0xF05 JUMP JUMPDEST PUSH2 0x1087 PUSH1 0x60 DUP4 ADD DUP5 PUSH2 0xDDE JUMP JUMPDEST SWAP6 SWAP5 POP POP POP POP POP JUMP JUMPDEST PUSH1 0x0 PUSH1 0xA0 DUP3 ADD SWAP1 POP PUSH2 0x10A5 PUSH1 0x0 DUP4 ADD DUP9 PUSH2 0xF05 JUMP JUMPDEST PUSH2 0x10B2 PUSH1 0x20 DUP4 ADD DUP8 PUSH2 0xF05 JUMP JUMPDEST PUSH2 0x10BF PUSH1 0x40 DUP4 ADD DUP7 PUSH2 0xF05 JUMP JUMPDEST PUSH2 0x10CC PUSH1 0x60 DUP4 ADD DUP6 PUSH2 0xF05 JUMP JUMPDEST PUSH2 0x10D9 PUSH1 0x80 DUP4 ADD DUP5 PUSH2 0xDCF JUMP JUMPDEST SWAP7 SWAP6 POP POP POP POP POP POP JUMP JUMPDEST PUSH1 0x0 DUP3 DUP3 MSTORE PUSH1 0x20 DUP3 ADD SWAP1 POP SWAP3 SWAP2 POP POP JUMP JUMPDEST PUSH1 0x0 PUSH2 0x10FF DUP3 PUSH2 0x11BC JUMP JUMPDEST SWAP2 POP PUSH2 0x110A DUP4 PUSH2 0x11BC JUMP JUMPDEST SWAP3 POP DUP3 PUSH32 0xFFFFFFFFFFFFFFFFFFFFFFFFFFFFFFFFFFFFFFFFFFFFFFFFFFFFFFFFFFFFFFFF SUB DUP3 GT ISZERO PUSH2 0x113F JUMPI PUSH2 0x113E PUSH2 0x120F JUMP JUMPDEST JUMPDEST DUP3 DUP3 ADD SWAP1 POP SWAP3 SWAP2 POP POP JUMP JUMPDEST PUSH1 0x0 PUSH2 0x1155 DUP3 PUSH2 0x11BC JUMP JUMPDEST SWAP2 POP PUSH2 0x1160 DUP4 PUSH2 0x11BC JUMP JUMPDEST SWAP3 POP DUP3 DUP3 LT ISZERO PUSH2 0x1173 JUMPI PUSH2 0x1172 PUSH2 0x120F JUMP JUMPDEST JUMPDEST DUP3 DUP3 SUB SWAP1 POP SWAP3 SWAP2 POP POP JUMP JUMPDEST PUSH1 0x0 PUSH2 0x1189 DUP3 PUSH2 0x119C JUMP JUMPDEST SWAP1 POP SWAP2 SWAP1 POP JUMP JUMPDEST PUSH1 0x0 DUP2 ISZERO ISZERO SWAP1 POP SWAP2 SWAP1 POP JUMP JUMPDEST PUSH1 0x0 PUSH20 0xFFFFFFFFFFFFFFFFFFFFFFFFFFFFFFFFFFFFFFFF DUP3 AND SWAP1 POP SWAP2 SWAP1 POP JUMP JUMPDEST PUSH1 0x0 DUP2 SWAP1 POP SWAP2 SWAP1 POP JUMP JUMPDEST PUSH1 0x0 PUSH2 0x11D1 DUP3 PUSH2 0x11BC JUMP JUMPDEST SWAP2 POP PUSH32 0xFFFFFFFFFFFFFFFFFFFFFFFFFFFFFFFFFFFFFFFFFFFFFFFFFFFFFFFFFFFFFFFF DUP3 EQ ISZERO PUSH2 0x1204 JUMPI PUSH2 0x1203 PUSH2 0x120F JUMP JUMPDEST JUMPDEST PUSH1 0x1 DUP3 ADD SWAP1 POP SWAP2 SWAP1 POP JUMP JUMPDEST PUSH32 0x4E487B7100000000000000000000000000000000000000000000000000000000 PUSH1 0x0 MSTORE PUSH1 0x11 PUSH1 0x4 MSTORE PUSH1 0x24 PUSH1 0x0 REVERT JUMPDEST PUSH32 0x4E487B7100000000000000000000000000000000000000000000000000000000 PUSH1 0x0 MSTORE PUSH1 0x32 PUSH1 0x4 MSTORE PUSH1 0x24 PUSH1 0x0 REVERT JUMPDEST PUSH1 0x0 DUP1 REVERT JUMPDEST PUSH32 0x4F6E6C7920746865206C616E646C6F72642063616E2061646420726F6F6D7300 PUSH1 0x0 DUP3 ADD MSTORE POP JUMP JUMPDEST PUSH32 0x54656E616E7420616E6420726F6F6D20646F206E6F74206D6174636800000000 PUSH1 0x0 DUP3 ADD MSTORE POP JUMP JUMPDEST PUSH32 0x526F6F6D20697320616C7265616479206F636375706965640000000000000000 PUSH1 0x0 DUP3 ADD MSTORE POP JUMP JUMPDEST PUSH32 0x596F7572206C656173652069732070616964206F666600000000000000000000 PUSH1 0x0 DUP3 ADD MSTORE POP JUMP JUMPDEST PUSH32 0x496E73756666696369656E742066756E647320666F722072656E74207061796D PUSH1 0x0 DUP3 ADD MSTORE PUSH32 0x656E740000000000000000000000000000000000000000000000000000000000 PUSH1 0x20 DUP3 ADD MSTORE POP JUMP JUMPDEST PUSH32 0x496E73756666696369656E742066756E647320666F72206465706F7369742072 PUSH1 0x0 DUP3 ADD MSTORE PUSH32 0x6566756E64000000000000000000000000000000000000000000000000000000 PUSH1 0x20 DUP3 ADD MSTORE POP JUMP JUMPDEST PUSH32 0x526F6F6D20697320616C726561647920766163616E7400000000000000000000 PUSH1 0x0 DUP3 ADD MSTORE POP JUMP JUMPDEST PUSH32 0x596F7520646F6E2774206861766520656E6F7567682066756E647320746F2070 PUSH1 0x0 DUP3 ADD MSTORE PUSH32 0x6179207468652061677265656D656E7420666565000000000000000000000000 PUSH1 0x20 DUP3 ADD MSTORE POP JUMP JUMPDEST PUSH2 0x1435 DUP2 PUSH2 0x11BC JUMP JUMPDEST DUP2 EQ PUSH2 0x1440 JUMPI PUSH1 0x0 DUP1 REVERT JUMPDEST POP JUMP INVALID LOG2 PUSH5 0x6970667358 0x22 SLT KECCAK256 MSIZE 0xE PUSH3 0xDD72D2 LOG3 POP 0x2E PUSH16 0xDA84F3FEAC8BB74281F3D4619452278B 0xDB 0xE9 0xF8 0xF BALANCE 0xF6 PUSH5 0x736F6C6343 STOP ADDMOD SMOD STOP CALLER "
				},
				"gasEstimates": {
					"creation": {
						"codeDepositCost": "1048200",
						"executionCost": "25353",
						"totalCost": "1073553"
					},
					"external": {
						"Agreements_by_Number(uint256)": "infinite",
						"Payments_by_Number(uint256,uint256)": "infinite",
						"Rooms_by_Number(uint256)": "infinite",
						"addRooms(uint256,uint256,uint256)": "infinite",
						"payRent(uint256)": "infinite",
						"signAgreement(uint256,uint256)": "infinite",
						"terminateAgreement(uint256)": "infinite"
					}
				},
				"methodIdentifiers": {
					"Agreements_by_Number(uint256)": "d18f7e28",
					"Payments_by_Number(uint256,uint256)": "33a5acdd",
					"Rooms_by_Number(uint256)": "cba6c356",
					"addRooms(uint256,uint256,uint256)": "002ab618",
					"payRent(uint256)": "d9e8843f",
					"signAgreement(uint256,uint256)": "e1590cb6",
					"terminateAgreement(uint256)": "9a026924"
				}
			},
			"userdoc": {
				"kind": "user",
				"methods": {},
				"version": 1
			}
		}
	}
}